{
  "_format": "hh-sol-artifact-1",
  "contractName": "EhrabNFT",
  "sourceName": "contracts/EhrabNFT.sol",
  "abi": [
    {
      "inputs": [],
      "stateMutability": "nonpayable",
      "type": "constructor"
    },
    {
      "anonymous": false,
      "inputs": [
        {
          "indexed": true,
          "internalType": "address",
          "name": "owner",
          "type": "address"
        },
        {
          "indexed": true,
          "internalType": "address",
          "name": "approved",
          "type": "address"
        },
        {
          "indexed": true,
          "internalType": "uint256",
          "name": "tokenId",
          "type": "uint256"
        }
      ],
      "name": "Approval",
      "type": "event"
    },
    {
      "anonymous": false,
      "inputs": [
        {
          "indexed": true,
          "internalType": "address",
          "name": "owner",
          "type": "address"
        },
        {
          "indexed": true,
          "internalType": "address",
          "name": "operator",
          "type": "address"
        },
        {
          "indexed": false,
          "internalType": "bool",
          "name": "approved",
          "type": "bool"
        }
      ],
      "name": "ApprovalForAll",
      "type": "event"
    },
    {
      "anonymous": false,
      "inputs": [
        {
          "indexed": true,
          "internalType": "address",
          "name": "from",
          "type": "address"
        },
        {
          "indexed": true,
          "internalType": "address",
          "name": "to",
          "type": "address"
        },
        {
          "indexed": true,
          "internalType": "uint256",
          "name": "tokenId",
          "type": "uint256"
        }
      ],
      "name": "Transfer",
      "type": "event"
    },
    {
      "inputs": [
        {
          "internalType": "address",
          "name": "to",
          "type": "address"
        },
        {
          "internalType": "uint256",
          "name": "tokenId",
          "type": "uint256"
        }
      ],
      "name": "approve",
      "outputs": [],
      "stateMutability": "nonpayable",
      "type": "function"
    },
    {
      "inputs": [
        {
          "internalType": "address",
          "name": "owner",
          "type": "address"
        }
      ],
      "name": "balanceOf",
      "outputs": [
        {
          "internalType": "uint256",
          "name": "",
          "type": "uint256"
        }
      ],
      "stateMutability": "view",
      "type": "function"
    },
    {
      "inputs": [
        {
          "internalType": "uint256",
          "name": "tokenId",
          "type": "uint256"
        }
      ],
      "name": "getApproved",
      "outputs": [
        {
          "internalType": "address",
          "name": "",
          "type": "address"
        }
      ],
      "stateMutability": "view",
      "type": "function"
    },
    {
      "inputs": [
        {
          "internalType": "address",
          "name": "owner",
          "type": "address"
        },
        {
          "internalType": "address",
          "name": "operator",
          "type": "address"
        }
      ],
      "name": "isApprovedForAll",
      "outputs": [
        {
          "internalType": "bool",
          "name": "",
          "type": "bool"
        }
      ],
      "stateMutability": "view",
      "type": "function"
    },
    {
      "inputs": [],
      "name": "mintEhrabNFT",
      "outputs": [],
      "stateMutability": "nonpayable",
      "type": "function"
    },
    {
      "inputs": [],
      "name": "name",
      "outputs": [
        {
          "internalType": "string",
          "name": "",
          "type": "string"
        }
      ],
      "stateMutability": "view",
      "type": "function"
    },
    {
      "inputs": [
        {
          "internalType": "uint256",
          "name": "tokenId",
          "type": "uint256"
        }
      ],
      "name": "ownerOf",
      "outputs": [
        {
          "internalType": "address",
          "name": "",
          "type": "address"
        }
      ],
      "stateMutability": "view",
      "type": "function"
    },
    {
      "inputs": [
        {
          "internalType": "uint256",
          "name": "tokenId",
          "type": "uint256"
        }
      ],
      "name": "pickRandomFirstWord",
      "outputs": [
        {
          "internalType": "string",
          "name": "",
          "type": "string"
        }
      ],
      "stateMutability": "view",
      "type": "function"
    },
    {
      "inputs": [
        {
          "internalType": "uint256",
          "name": "tokenId",
          "type": "uint256"
        }
      ],
      "name": "pickRandomSecondWord",
      "outputs": [
        {
          "internalType": "string",
          "name": "",
          "type": "string"
        }
      ],
      "stateMutability": "view",
      "type": "function"
    },
    {
      "inputs": [
        {
          "internalType": "uint256",
          "name": "tokenId",
          "type": "uint256"
        }
      ],
      "name": "pickRandomThirdWord",
      "outputs": [
        {
          "internalType": "string",
          "name": "",
          "type": "string"
        }
      ],
      "stateMutability": "view",
      "type": "function"
    },
    {
      "inputs": [
        {
          "internalType": "address",
          "name": "from",
          "type": "address"
        },
        {
          "internalType": "address",
          "name": "to",
          "type": "address"
        },
        {
          "internalType": "uint256",
          "name": "tokenId",
          "type": "uint256"
        }
      ],
      "name": "safeTransferFrom",
      "outputs": [],
      "stateMutability": "nonpayable",
      "type": "function"
    },
    {
      "inputs": [
        {
          "internalType": "address",
          "name": "from",
          "type": "address"
        },
        {
          "internalType": "address",
          "name": "to",
          "type": "address"
        },
        {
          "internalType": "uint256",
          "name": "tokenId",
          "type": "uint256"
        },
        {
          "internalType": "bytes",
          "name": "_data",
          "type": "bytes"
        }
      ],
      "name": "safeTransferFrom",
      "outputs": [],
      "stateMutability": "nonpayable",
      "type": "function"
    },
    {
      "inputs": [
        {
          "internalType": "address",
          "name": "operator",
          "type": "address"
        },
        {
          "internalType": "bool",
          "name": "approved",
          "type": "bool"
        }
      ],
      "name": "setApprovalForAll",
      "outputs": [],
      "stateMutability": "nonpayable",
      "type": "function"
    },
    {
      "inputs": [
        {
          "internalType": "bytes4",
          "name": "interfaceId",
          "type": "bytes4"
        }
      ],
      "name": "supportsInterface",
      "outputs": [
        {
          "internalType": "bool",
          "name": "",
          "type": "bool"
        }
      ],
      "stateMutability": "view",
      "type": "function"
    },
    {
      "inputs": [],
      "name": "symbol",
      "outputs": [
        {
          "internalType": "string",
          "name": "",
          "type": "string"
        }
      ],
      "stateMutability": "view",
      "type": "function"
    },
    {
      "inputs": [
        {
          "internalType": "uint256",
          "name": "tokenId",
          "type": "uint256"
        }
      ],
      "name": "tokenURI",
      "outputs": [
        {
          "internalType": "string",
          "name": "",
          "type": "string"
        }
      ],
      "stateMutability": "view",
      "type": "function"
    },
    {
      "inputs": [
        {
          "internalType": "address",
          "name": "from",
          "type": "address"
        },
        {
          "internalType": "address",
          "name": "to",
          "type": "address"
        },
        {
          "internalType": "uint256",
          "name": "tokenId",
          "type": "uint256"
        }
      ],
      "name": "transferFrom",
      "outputs": [],
      "stateMutability": "nonpayable",
      "type": "function"
    }
  ],
  "bytecode": "0x608060405260405180610160016040528061012f81526020016200413261012f913960089080519060200190620000389291906200067e565b506040518060c001604052806040518060400160405280600981526020017f46616e746173746963000000000000000000000000000000000000000000000081525081526020016040518060400160405280600781526020017f416d617a696e670000000000000000000000000000000000000000000000000081525081526020016040518060400160405280600581526020017f536d616c6c00000000000000000000000000000000000000000000000000000081525081526020016040518060400160405280600581526020017f4c6172676500000000000000000000000000000000000000000000000000000081525081526020016040518060400160405280600481526020017f487567650000000000000000000000000000000000000000000000000000000081525081526020016040518060400160405280600481526020017f57696c64000000000000000000000000000000000000000000000000000000008152508152506009906006620001b69291906200070f565b506040518060c001604052806040518060400160405280600581526020017f50686f6e6500000000000000000000000000000000000000000000000000000081525081526020016040518060400160405280600581526020017f576865656c00000000000000000000000000000000000000000000000000000081525081526020016040518060400160405280600381526020017f436172000000000000000000000000000000000000000000000000000000000081525081526020016040518060400160405280600481526020017f53686f650000000000000000000000000000000000000000000000000000000081525081526020016040518060400160405280600781526020017f53636f6f7465720000000000000000000000000000000000000000000000000081525081526020016040518060400160405280600681526020017f4261736b65740000000000000000000000000000000000000000000000000000815250815250600a906006620003349291906200070f565b506040518060c001604052806040518060400160405280600681526020017f4170706c6573000000000000000000000000000000000000000000000000000081525081526020016040518060400160405280600581526020017f547265657300000000000000000000000000000000000000000000000000000081525081526020016040518060400160405280600481526020017f486174730000000000000000000000000000000000000000000000000000000081525081526020016040518060400160405280600781526020017f44756d6d6965730000000000000000000000000000000000000000000000000081525081526020016040518060400160405280600781526020017f42616e616e61730000000000000000000000000000000000000000000000000081525081526020016040518060400160405280600781526020017f4d6f6e6b65797300000000000000000000000000000000000000000000000000815250815250600b906006620004b29291906200070f565b50348015620004c057600080fd5b506040518060400160405280600681526020017f45687261624d00000000000000000000000000000000000000000000000000008152506040518060400160405280600281526020017f45480000000000000000000000000000000000000000000000000000000000008152508160009080519060200190620005459291906200067e565b5080600190805190602001906200055e9291906200067e565b505050620005ac6040518060400160405280601e81526020017f57656c636f6d6520746f204568726162277320636f6c6c656374696f6e2e0000815250620005b260201b6200108e1760201c565b62000930565b6200065281604051602401620005c9919062000844565b6040516020818303038152906040527f41304fac000000000000000000000000000000000000000000000000000000007bffffffffffffffffffffffffffffffffffffffffffffffffffffffff19166020820180517bffffffffffffffffffffffffffffffffffffffffffffffffffffffff83818316178352505050506200065560201b60201c565b50565b60008151905060006a636f6e736f6c652e6c6f679050602083016000808483855afa5050505050565b8280546200068c90620008ba565b90600052602060002090601f016020900481019282620006b05760008555620006fc565b82601f10620006cb57805160ff1916838001178555620006fc565b82800160010185558215620006fc579182015b82811115620006fb578251825591602001919060010190620006de565b5b5090506200070b919062000776565b5090565b82805482825590600052602060002090810192821562000763579160200282015b8281111562000762578251829080519060200190620007519291906200067e565b509160200191906001019062000730565b5b50905062000772919062000795565b5090565b5b808211156200079157600081600090555060010162000777565b5090565b5b80821115620007b95760008181620007af9190620007bd565b5060010162000796565b5090565b508054620007cb90620008ba565b6000825580601f10620007df575062000800565b601f016020900490600052602060002090810190620007ff919062000776565b5b50565b6000620008108262000868565b6200081c818562000873565b93506200082e81856020860162000884565b62000839816200091f565b840191505092915050565b6000602082019050818103600083015262000860818462000803565b905092915050565b600081519050919050565b600082825260208201905092915050565b60005b83811015620008a457808201518184015260208101905062000887565b83811115620008b4576000848401525b50505050565b60006002820490506001821680620008d357607f821691505b60208210811415620008ea57620008e9620008f0565b5b50919050565b7f4e487b7100000000000000000000000000000000000000000000000000000000600052602260045260246000fd5b6000601f19601f8301169050919050565b6137f280620009406000396000f3fe608060405234801561001057600080fd5b506004361061010b5760003560e01c806370a08231116100a2578063b187301f11610071578063b187301f146102b6578063b88d4fde146102e6578063c575757a14610302578063c87b56dd14610332578063e985e9c5146103625761010b565b806370a0823114610242578063838d17c01461027257806395d89b411461027c578063a22cb4651461029a5761010b565b806323b872dd116100de57806323b872dd146101aa5780632de38d68146101c657806342842e0e146101f65780636352211e146102125761010b565b806301ffc9a71461011057806306fdde0314610140578063081812fc1461015e578063095ea7b31461018e575b600080fd5b61012a6004803603810190610125919061246f565b610392565b6040516101379190613068565b60405180910390f35b610148610474565b6040516101559190613083565b60405180910390f35b610178600480360381019061017391906124c1565b610506565b6040516101859190613001565b60405180910390f35b6101a860048036038101906101a39190612433565b61058b565b005b6101c460048036038101906101bf919061232d565b6106a3565b005b6101e060048036038101906101db91906124c1565b610703565b6040516101ed9190613083565b60405180910390f35b610210600480360381019061020b919061232d565b610821565b005b61022c600480360381019061022791906124c1565b610841565b6040516102399190613001565b60405180910390f35b61025c600480360381019061025791906122c8565b6108f3565b60405161026991906132e3565b60405180910390f35b61027a6109ab565b005b610284610b62565b6040516102919190613083565b60405180910390f35b6102b460048036038101906102af91906123f7565b610bf4565b005b6102d060048036038101906102cb91906124c1565b610c0a565b6040516102dd9190613083565b60405180910390f35b61030060048036038101906102fb919061237c565b610d28565b005b61031c600480360381019061031791906124c1565b610d8a565b6040516103299190613083565b60405180910390f35b61034c600480360381019061034791906124c1565b610ea8565b6040516103599190613083565b60405180910390f35b61037c600480360381019061037791906122f1565b610ffa565b6040516103899190613068565b60405180910390f35b60007f80ac58cd000000000000000000000000000000000000000000000000000000007bffffffffffffffffffffffffffffffffffffffffffffffffffffffff1916827bffffffffffffffffffffffffffffffffffffffffffffffffffffffff1916148061045d57507f5b5e139f000000000000000000000000000000000000000000000000000000007bffffffffffffffffffffffffffffffffffffffffffffffffffffffff1916827bffffffffffffffffffffffffffffffffffffffffffffffffffffffff1916145b8061046d575061046c82611127565b5b9050919050565b60606000805461048390613582565b80601f01602080910402602001604051908101604052809291908181526020018280546104af90613582565b80156104fc5780601f106104d1576101008083540402835291602001916104fc565b820191906000526020600020905b8154815290600101906020018083116104df57829003601f168201915b5050505050905090565b600061051182611191565b610550576040517f08c379a000000000000000000000000000000000000000000000000000000000815260040161054790613243565b60405180910390fd5b6004600083815260200190815260200160002060009054906101000a900473ffffffffffffffffffffffffffffffffffffffff169050919050565b600061059682610841565b90508073ffffffffffffffffffffffffffffffffffffffff168373ffffffffffffffffffffffffffffffffffffffff161415610607576040517f08c379a00000000000000000000000000000000000000000000000000000000081526004016105fe906132a3565b60405180910390fd5b8073ffffffffffffffffffffffffffffffffffffffff166106266111fd565b73ffffffffffffffffffffffffffffffffffffffff16148061065557506106548161064f6111fd565b610ffa565b5b610694576040517f08c379a000000000000000000000000000000000000000000000000000000000815260040161068b90613183565b60405180910390fd5b61069e8383611205565b505050565b6106b46106ae6111fd565b826112be565b6106f3576040517f08c379a00000000000000000000000000000000000000000000000000000000081526004016106ea906132c3565b60405180910390fd5b6106fe83838361139c565b505050565b60606000610737610713846115f8565b6040516020016107239190612fbd565b6040516020818303038152906040526117a5565b90506009805490508161074a91906135fd565b905060098181548110610786577f4e487b7100000000000000000000000000000000000000000000000000000000600052603260045260246000fd5b90600052602060002001805461079b90613582565b80601f01602080910402602001604051908101604052809291908181526020018280546107c790613582565b80156108145780601f106107e957610100808354040283529160200191610814565b820191906000526020600020905b8154815290600101906020018083116107f757829003601f168201915b5050505050915050919050565b61083c83838360405180602001604052806000815250610d28565b505050565b6000806002600084815260200190815260200160002060009054906101000a900473ffffffffffffffffffffffffffffffffffffffff169050600073ffffffffffffffffffffffffffffffffffffffff168173ffffffffffffffffffffffffffffffffffffffff1614156108ea576040517f08c379a00000000000000000000000000000000000000000000000000000000081526004016108e1906131c3565b60405180910390fd5b80915050919050565b60008073ffffffffffffffffffffffffffffffffffffffff168273ffffffffffffffffffffffffffffffffffffffff161415610964576040517f08c379a000000000000000000000000000000000000000000000000000000000815260040161095b906131a3565b60405180910390fd5b600360008373ffffffffffffffffffffffffffffffffffffffff1673ffffffffffffffffffffffffffffffffffffffff168152602001908152602001600020549050919050565b60006109b760076117d8565b905060006109c482610703565b905060006109d183610c0a565b905060006109de84610d8a565b905060008383836040516020016109f793929190612ed4565b60405160208183030381529060405290506000600882604051602001610a1e929190612f05565b60405160208183030381529060405290506000610a6383610a3e846117e6565b604051602001610a4f929190612f78565b6040516020818303038152906040526117e6565b9050600081604051602001610a789190612fdf565b6040516020818303038152906040529050610ac76040518060400160405280601581526020017f0a2d2d2d2d2d2d2d2d2d2d2d2d2d2d2d2d2d2d2d2d000000000000000000000081525061108e565b610ad08461108e565b610ad98161108e565b610b176040518060400160405280601581526020017f2d2d2d2d2d2d2d2d2d2d2d2d2d2d2d2d2d2d2d2d0a000000000000000000000081525061108e565b610b213389611985565b610b2b88826119a3565b610b4e604051806060016040528060258152602001613758602591398933611a17565b610b586007611ab6565b5050505050505050565b606060018054610b7190613582565b80601f0160208091040260200160405190810160405280929190818152602001828054610b9d90613582565b8015610bea5780601f10610bbf57610100808354040283529160200191610bea565b820191906000526020600020905b815481529060010190602001808311610bcd57829003601f168201915b5050505050905090565b610c06610bff6111fd565b8383611acc565b5050565b60606000610c3e610c1a846115f8565b604051602001610c2a9190612f56565b6040516020818303038152906040526117a5565b9050600a8054905081610c5191906135fd565b9050600a8181548110610c8d577f4e487b7100000000000000000000000000000000000000000000000000000000600052603260045260246000fd5b906000526020600020018054610ca290613582565b80601f0160208091040260200160405190810160405280929190818152602001828054610cce90613582565b8015610d1b5780601f10610cf057610100808354040283529160200191610d1b565b820191906000526020600020905b815481529060010190602001808311610cfe57829003601f168201915b5050505050915050919050565b610d39610d336111fd565b836112be565b610d78576040517f08c379a0000000000000000000000000000000000000000000000000000000008152600401610d6f906132c3565b60405180910390fd5b610d8484848484611c39565b50505050565b60606000610dbe610d9a846115f8565b604051602001610daa9190612f34565b6040516020818303038152906040526117a5565b9050600b8054905081610dd191906135fd565b9050600b8181548110610e0d577f4e487b7100000000000000000000000000000000000000000000000000000000600052603260045260246000fd5b906000526020600020018054610e2290613582565b80601f0160208091040260200160405190810160405280929190818152602001828054610e4e90613582565b8015610e9b5780601f10610e7057610100808354040283529160200191610e9b565b820191906000526020600020905b815481529060010190602001808311610e7e57829003601f168201915b5050505050915050919050565b6060610eb382611191565b610ef2576040517f08c379a0000000000000000000000000000000000000000000000000000000008152600401610ee990613223565b60405180910390fd5b6000600660008481526020019081526020016000208054610f1290613582565b80601f0160208091040260200160405190810160405280929190818152602001828054610f3e90613582565b8015610f8b5780601f10610f6057610100808354040283529160200191610f8b565b820191906000526020600020905b815481529060010190602001808311610f6e57829003601f168201915b505050505090506000610f9c611c95565b9050600081511415610fb2578192505050610ff5565b600082511115610fe7578082604051602001610fcf929190612eb0565b60405160208183030381529060405292505050610ff5565b610ff084611cac565b925050505b919050565b6000600560008473ffffffffffffffffffffffffffffffffffffffff1673ffffffffffffffffffffffffffffffffffffffff16815260200190815260200160002060008373ffffffffffffffffffffffffffffffffffffffff1673ffffffffffffffffffffffffffffffffffffffff16815260200190815260200160002060009054906101000a900460ff16905092915050565b611124816040516024016110a29190613083565b6040516020818303038152906040527f41304fac000000000000000000000000000000000000000000000000000000007bffffffffffffffffffffffffffffffffffffffffffffffffffffffff19166020820180517bffffffffffffffffffffffffffffffffffffffffffffffffffffffff8381831617835250505050611d53565b50565b60007f01ffc9a7000000000000000000000000000000000000000000000000000000007bffffffffffffffffffffffffffffffffffffffffffffffffffffffff1916827bffffffffffffffffffffffffffffffffffffffffffffffffffffffff1916149050919050565b60008073ffffffffffffffffffffffffffffffffffffffff166002600084815260200190815260200160002060009054906101000a900473ffffffffffffffffffffffffffffffffffffffff1673ffffffffffffffffffffffffffffffffffffffff1614159050919050565b600033905090565b816004600083815260200190815260200160002060006101000a81548173ffffffffffffffffffffffffffffffffffffffff021916908373ffffffffffffffffffffffffffffffffffffffff160217905550808273ffffffffffffffffffffffffffffffffffffffff1661127883610841565b73ffffffffffffffffffffffffffffffffffffffff167f8c5be1e5ebec7d5bd14f71427d1e84f3dd0314c0f7b2291e5b200ac8c7c3b92560405160405180910390a45050565b60006112c982611191565b611308576040517f08c379a00000000000000000000000000000000000000000000000000000000081526004016112ff90613163565b60405180910390fd5b600061131383610841565b90508073ffffffffffffffffffffffffffffffffffffffff168473ffffffffffffffffffffffffffffffffffffffff16148061138257508373ffffffffffffffffffffffffffffffffffffffff1661136a84610506565b73ffffffffffffffffffffffffffffffffffffffff16145b8061139357506113928185610ffa565b5b91505092915050565b8273ffffffffffffffffffffffffffffffffffffffff166113bc82610841565b73ffffffffffffffffffffffffffffffffffffffff1614611412576040517f08c379a000000000000000000000000000000000000000000000000000000000815260040161140990613263565b60405180910390fd5b600073ffffffffffffffffffffffffffffffffffffffff168273ffffffffffffffffffffffffffffffffffffffff161415611482576040517f08c379a000000000000000000000000000000000000000000000000000000000815260040161147990613123565b60405180910390fd5b61148d838383611d7c565b611498600082611205565b6001600360008573ffffffffffffffffffffffffffffffffffffffff1673ffffffffffffffffffffffffffffffffffffffff16815260200190815260200160002060008282546114e89190613498565b925050819055506001600360008473ffffffffffffffffffffffffffffffffffffffff1673ffffffffffffffffffffffffffffffffffffffff168152602001908152602001600020600082825461153f91906133b7565b92505081905550816002600083815260200190815260200160002060006101000a81548173ffffffffffffffffffffffffffffffffffffffff021916908373ffffffffffffffffffffffffffffffffffffffff160217905550808273ffffffffffffffffffffffffffffffffffffffff168473ffffffffffffffffffffffffffffffffffffffff167fddf252ad1be2c89b69c2b068fc378daa952ba7f163c4a11628f55a4df523b3ef60405160405180910390a4505050565b60606000821415611640576040518060400160405280600181526020017f300000000000000000000000000000000000000000000000000000000000000081525090506117a0565b600082905060005b6000821461167257808061165b906135b4565b915050600a8261166b919061340d565b9150611648565b60008167ffffffffffffffff8111156116b4577f4e487b7100000000000000000000000000000000000000000000000000000000600052604160045260246000fd5b6040519080825280601f01601f1916602001820160405280156116e65781602001600182028036833780820191505090505b5090505b60008514611799576001826116ff9190613498565b9150600a8561170e91906135fd565b603061171a91906133b7565b60f81b818381518110611756577f4e487b7100000000000000000000000000000000000000000000000000000000600052603260045260246000fd5b60200101907effffffffffffffffffffffffffffffffffffffffffffffffffffffffffffff1916908160001a905350600a85611792919061340d565b94506116ea565b8093505050505b919050565b6000816040516020016117b89190612e99565b6040516020818303038152906040528051906020012060001c9050919050565b600081600001549050919050565b606060008251141561180957604051806020016040528060008152509050611980565b600060405180606001604052806040815260200161377d604091399050600060036002855161183891906133b7565b611842919061340d565b600461184e919061343e565b9050600060208261185f91906133b7565b67ffffffffffffffff81111561189e577f4e487b7100000000000000000000000000000000000000000000000000000000600052604160045260246000fd5b6040519080825280601f01601f1916602001820160405280156118d05781602001600182028036833780820191505090505b509050818152600183018586518101602084015b8183101561193f576003830192508251603f8160121c168501518253600182019150603f81600c1c168501518253600182019150603f8160061c168501518253600182019150603f81168501518253600182019150506118e4565b600389510660018114611959576002811461196957611974565b613d3d60f01b6002830352611974565b603d60f81b60018303525b50505050508093505050505b919050565b61199f828260405180602001604052806000815250611d81565b5050565b6119ac82611191565b6119eb576040517f08c379a00000000000000000000000000000000000000000000000000000000081526004016119e2906131e3565b60405180910390fd5b80600660008481526020019081526020016000209080519060200190611a12929190612154565b505050565b611ab1838383604051602401611a2f939291906130a5565b6040516020818303038152906040527fe3849f79000000000000000000000000000000000000000000000000000000007bffffffffffffffffffffffffffffffffffffffffffffffffffffffff19166020820180517bffffffffffffffffffffffffffffffffffffffffffffffffffffffff8381831617835250505050611d53565b505050565b6001816000016000828254019250508190555050565b8173ffffffffffffffffffffffffffffffffffffffff168373ffffffffffffffffffffffffffffffffffffffff161415611b3b576040517f08c379a0000000000000000000000000000000000000000000000000000000008152600401611b3290613143565b60405180910390fd5b80600560008573ffffffffffffffffffffffffffffffffffffffff1673ffffffffffffffffffffffffffffffffffffffff16815260200190815260200160002060008473ffffffffffffffffffffffffffffffffffffffff1673ffffffffffffffffffffffffffffffffffffffff16815260200190815260200160002060006101000a81548160ff0219169083151502179055508173ffffffffffffffffffffffffffffffffffffffff168373ffffffffffffffffffffffffffffffffffffffff167f17307eab39ab6107e8899845ad3d59bd9653f200f220920489ca2b5937696c3183604051611c2c9190613068565b60405180910390a3505050565b611c4484848461139c565b611c5084848484611ddc565b611c8f576040517f08c379a0000000000000000000000000000000000000000000000000000000008152600401611c86906130e3565b60405180910390fd5b50505050565b606060405180602001604052806000815250905090565b6060611cb782611191565b611cf6576040517f08c379a0000000000000000000000000000000000000000000000000000000008152600401611ced90613283565b60405180910390fd5b6000611d00611c95565b90506000815111611d205760405180602001604052806000815250611d4b565b80611d2a846115f8565b604051602001611d3b929190612eb0565b6040516020818303038152906040525b915050919050565b60008151905060006a636f6e736f6c652e6c6f679050602083016000808483855afa5050505050565b505050565b611d8b8383611f73565b611d986000848484611ddc565b611dd7576040517f08c379a0000000000000000000000000000000000000000000000000000000008152600401611dce906130e3565b60405180910390fd5b505050565b6000611dfd8473ffffffffffffffffffffffffffffffffffffffff16612141565b15611f66578373ffffffffffffffffffffffffffffffffffffffff1663150b7a02611e266111fd565b8786866040518563ffffffff1660e01b8152600401611e48949392919061301c565b602060405180830381600087803b158015611e6257600080fd5b505af1925050508015611e9357506040513d601f19601f82011682018060405250810190611e909190612498565b60015b611f16573d8060008114611ec3576040519150601f19603f3d011682016040523d82523d6000602084013e611ec8565b606091505b50600081511415611f0e576040517f08c379a0000000000000000000000000000000000000000000000000000000008152600401611f05906130e3565b60405180910390fd5b805181602001fd5b63150b7a0260e01b7bffffffffffffffffffffffffffffffffffffffffffffffffffffffff1916817bffffffffffffffffffffffffffffffffffffffffffffffffffffffff191614915050611f6b565b600190505b949350505050565b600073ffffffffffffffffffffffffffffffffffffffff168273ffffffffffffffffffffffffffffffffffffffff161415611fe3576040517f08c379a0000000000000000000000000000000000000000000000000000000008152600401611fda90613203565b60405180910390fd5b611fec81611191565b1561202c576040517f08c379a000000000000000000000000000000000000000000000000000000000815260040161202390613103565b60405180910390fd5b61203860008383611d7c565b6001600360008473ffffffffffffffffffffffffffffffffffffffff1673ffffffffffffffffffffffffffffffffffffffff168152602001908152602001600020600082825461208891906133b7565b92505081905550816002600083815260200190815260200160002060006101000a81548173ffffffffffffffffffffffffffffffffffffffff021916908373ffffffffffffffffffffffffffffffffffffffff160217905550808273ffffffffffffffffffffffffffffffffffffffff16600073ffffffffffffffffffffffffffffffffffffffff167fddf252ad1be2c89b69c2b068fc378daa952ba7f163c4a11628f55a4df523b3ef60405160405180910390a45050565b600080823b905060008111915050919050565b82805461216090613582565b90600052602060002090601f01602090048101928261218257600085556121c9565b82601f1061219b57805160ff19168380011785556121c9565b828001600101855582156121c9579182015b828111156121c85782518255916020019190600101906121ad565b5b5090506121d691906121da565b5090565b5b808211156121f35760008160009055506001016121db565b5090565b600061220a6122058461332f565b6132fe565b90508281526020810184848401111561222257600080fd5b61222d848285613540565b509392505050565b600081359050612244816136fb565b92915050565b60008135905061225981613712565b92915050565b60008135905061226e81613729565b92915050565b60008151905061228381613729565b92915050565b600082601f83011261229a57600080fd5b81356122aa8482602086016121f7565b91505092915050565b6000813590506122c281613740565b92915050565b6000602082840312156122da57600080fd5b60006122e884828501612235565b91505092915050565b6000806040838503121561230457600080fd5b600061231285828601612235565b925050602061232385828601612235565b9150509250929050565b60008060006060848603121561234257600080fd5b600061235086828701612235565b935050602061236186828701612235565b9250506040612372868287016122b3565b9150509250925092565b6000806000806080858703121561239257600080fd5b60006123a087828801612235565b94505060206123b187828801612235565b93505060406123c2878288016122b3565b925050606085013567ffffffffffffffff8111156123df57600080fd5b6123eb87828801612289565b91505092959194509250565b6000806040838503121561240a57600080fd5b600061241885828601612235565b92505060206124298582860161224a565b9150509250929050565b6000806040838503121561244657600080fd5b600061245485828601612235565b9250506020612465858286016122b3565b9150509250929050565b60006020828403121561248157600080fd5b600061248f8482850161225f565b91505092915050565b6000602082840312156124aa57600080fd5b60006124b884828501612274565b91505092915050565b6000602082840312156124d357600080fd5b60006124e1848285016122b3565b91505092915050565b6124f3816134cc565b82525050565b612502816134de565b82525050565b600061251382613374565b61251d818561338a565b935061252d81856020860161354f565b612536816136ea565b840191505092915050565b600061254c8261337f565b612556818561339b565b935061256681856020860161354f565b61256f816136ea565b840191505092915050565b60006125858261337f565b61258f81856133ac565b935061259f81856020860161354f565b80840191505092915050565b600081546125b881613582565b6125c281866133ac565b945060018216600081146125dd57600181146125ee57612621565b60ff19831686528186019350612621565b6125f78561335f565b60005b83811015612619578154818901526001820191506020810190506125fa565b838801955050505b50505092915050565b600061263760328361339b565b91507f4552433732313a207472616e7366657220746f206e6f6e20455243373231526560008301527f63656976657220696d706c656d656e74657200000000000000000000000000006020830152604082019050919050565b600061269d601c8361339b565b91507f4552433732313a20746f6b656e20616c7265616479206d696e746564000000006000830152602082019050919050565b60006126dd600a836133ac565b91507f54484952445f574f5244000000000000000000000000000000000000000000006000830152600a82019050919050565b600061271d60248361339b565b91507f4552433732313a207472616e7366657220746f20746865207a65726f2061646460008301527f72657373000000000000000000000000000000000000000000000000000000006020830152604082019050919050565b600061278360198361339b565b91507f4552433732313a20617070726f766520746f2063616c6c6572000000000000006000830152602082019050919050565b60006127c36063836133ac565b91507f222c20226465736372697074696f6e223a20224120686967686c79206163636c60008301527f61696d656420636f6c6c656374696f6e206f6620737175617265732e222c202260208301527f696d616765223a2022646174613a696d6167652f7376672b786d6c3b6261736560408301527f36342c00000000000000000000000000000000000000000000000000000000006060830152606382019050919050565b6000612875600b836133ac565b91507f5345434f4e445f574f52440000000000000000000000000000000000000000006000830152600b82019050919050565b60006128b5602c8361339b565b91507f4552433732313a206f70657261746f7220717565727920666f72206e6f6e657860008301527f697374656e7420746f6b656e00000000000000000000000000000000000000006020830152604082019050919050565b600061291b600d836133ac565b91507f3c2f746578743e3c2f7376673e000000000000000000000000000000000000006000830152600d82019050919050565b600061295b60388361339b565b91507f4552433732313a20617070726f76652063616c6c6572206973206e6f74206f7760008301527f6e6572206e6f7220617070726f76656420666f7220616c6c00000000000000006020830152604082019050919050565b60006129c1602a8361339b565b91507f4552433732313a2062616c616e636520717565727920666f7220746865207a6560008301527f726f2061646472657373000000000000000000000000000000000000000000006020830152604082019050919050565b6000612a2760298361339b565b91507f4552433732313a206f776e657220717565727920666f72206e6f6e657869737460008301527f656e7420746f6b656e00000000000000000000000000000000000000000000006020830152604082019050919050565b6000612a8d602e8361339b565b91507f45524337323155524953746f726167653a2055524920736574206f66206e6f6e60008301527f6578697374656e7420746f6b656e0000000000000000000000000000000000006020830152604082019050919050565b6000612af36002836133ac565b91507f227d0000000000000000000000000000000000000000000000000000000000006000830152600282019050919050565b6000612b3360208361339b565b91507f4552433732313a206d696e7420746f20746865207a65726f20616464726573736000830152602082019050919050565b6000612b7360318361339b565b91507f45524337323155524953746f726167653a2055524920717565727920666f722060008301527f6e6f6e6578697374656e7420746f6b656e0000000000000000000000000000006020830152604082019050919050565b6000612bd9602c8361339b565b91507f4552433732313a20617070726f76656420717565727920666f72206e6f6e657860008301527f697374656e7420746f6b656e00000000000000000000000000000000000000006020830152604082019050919050565b6000612c3f60298361339b565b91507f4552433732313a207472616e73666572206f6620746f6b656e2074686174206960008301527f73206e6f74206f776e00000000000000000000000000000000000000000000006020830152604082019050919050565b6000612ca5602f8361339b565b91507f4552433732314d657461646174613a2055524920717565727920666f72206e6f60008301527f6e6578697374656e7420746f6b656e00000000000000000000000000000000006020830152604082019050919050565b6000612d0b600a836133ac565b91507f7b226e616d65223a2022000000000000000000000000000000000000000000006000830152600a82019050919050565b6000612d4b60218361339b565b91507f4552433732313a20617070726f76616c20746f2063757272656e74206f776e6560008301527f72000000000000000000000000000000000000000000000000000000000000006020830152604082019050919050565b6000612db1600a836133ac565b91507f46495253545f574f5244000000000000000000000000000000000000000000006000830152600a82019050919050565b6000612df1601d836133ac565b91507f646174613a6170706c69636174696f6e2f6a736f6e3b6261736536342c0000006000830152601d82019050919050565b6000612e3160318361339b565b91507f4552433732313a207472616e736665722063616c6c6572206973206e6f74206f60008301527f776e6572206e6f7220617070726f7665640000000000000000000000000000006020830152604082019050919050565b612e9381613536565b82525050565b6000612ea5828461257a565b915081905092915050565b6000612ebc828561257a565b9150612ec8828461257a565b91508190509392505050565b6000612ee0828661257a565b9150612eec828561257a565b9150612ef8828461257a565b9150819050949350505050565b6000612f1182856125ab565b9150612f1d828461257a565b9150612f288261290e565b91508190509392505050565b6000612f3f826126d0565b9150612f4b828461257a565b915081905092915050565b6000612f6182612868565b9150612f6d828461257a565b915081905092915050565b6000612f8382612cfe565b9150612f8f828561257a565b9150612f9a826127b6565b9150612fa6828461257a565b9150612fb182612ae6565b91508190509392505050565b6000612fc882612da4565b9150612fd4828461257a565b915081905092915050565b6000612fea82612de4565b9150612ff6828461257a565b915081905092915050565b600060208201905061301660008301846124ea565b92915050565b600060808201905061303160008301876124ea565b61303e60208301866124ea565b61304b6040830185612e8a565b818103606083015261305d8184612508565b905095945050505050565b600060208201905061307d60008301846124f9565b92915050565b6000602082019050818103600083015261309d8184612541565b905092915050565b600060608201905081810360008301526130bf8186612541565b90506130ce6020830185612e8a565b6130db60408301846124ea565b949350505050565b600060208201905081810360008301526130fc8161262a565b9050919050565b6000602082019050818103600083015261311c81612690565b9050919050565b6000602082019050818103600083015261313c81612710565b9050919050565b6000602082019050818103600083015261315c81612776565b9050919050565b6000602082019050818103600083015261317c816128a8565b9050919050565b6000602082019050818103600083015261319c8161294e565b9050919050565b600060208201905081810360008301526131bc816129b4565b9050919050565b600060208201905081810360008301526131dc81612a1a565b9050919050565b600060208201905081810360008301526131fc81612a80565b9050919050565b6000602082019050818103600083015261321c81612b26565b9050919050565b6000602082019050818103600083015261323c81612b66565b9050919050565b6000602082019050818103600083015261325c81612bcc565b9050919050565b6000602082019050818103600083015261327c81612c32565b9050919050565b6000602082019050818103600083015261329c81612c98565b9050919050565b600060208201905081810360008301526132bc81612d3e565b9050919050565b600060208201905081810360008301526132dc81612e24565b9050919050565b60006020820190506132f86000830184612e8a565b92915050565b6000604051905081810181811067ffffffffffffffff82111715613325576133246136bb565b5b8060405250919050565b600067ffffffffffffffff82111561334a576133496136bb565b5b601f19601f8301169050602081019050919050565b60008190508160005260206000209050919050565b600081519050919050565b600081519050919050565b600082825260208201905092915050565b600082825260208201905092915050565b600081905092915050565b60006133c282613536565b91506133cd83613536565b9250827fffffffffffffffffffffffffffffffffffffffffffffffffffffffffffffffff038211156134025761340161362e565b5b828201905092915050565b600061341882613536565b915061342383613536565b9250826134335761343261365d565b5b828204905092915050565b600061344982613536565b915061345483613536565b9250817fffffffffffffffffffffffffffffffffffffffffffffffffffffffffffffffff048311821515161561348d5761348c61362e565b5b828202905092915050565b60006134a382613536565b91506134ae83613536565b9250828210156134c1576134c061362e565b5b828203905092915050565b60006134d782613516565b9050919050565b60008115159050919050565b60007fffffffff0000000000000000000000000000000000000000000000000000000082169050919050565b600073ffffffffffffffffffffffffffffffffffffffff82169050919050565b6000819050919050565b82818337600083830152505050565b60005b8381101561356d578082015181840152602081019050613552565b8381111561357c576000848401525b50505050565b6000600282049050600182168061359a57607f821691505b602082108114156135ae576135ad61368c565b5b50919050565b60006135bf82613536565b91507fffffffffffffffffffffffffffffffffffffffffffffffffffffffffffffffff8214156135f2576135f161362e565b5b600182019050919050565b600061360882613536565b915061361383613536565b9250826136235761362261365d565b5b828206905092915050565b7f4e487b7100000000000000000000000000000000000000000000000000000000600052601160045260246000fd5b7f4e487b7100000000000000000000000000000000000000000000000000000000600052601260045260246000fd5b7f4e487b7100000000000000000000000000000000000000000000000000000000600052602260045260246000fd5b7f4e487b7100000000000000000000000000000000000000000000000000000000600052604160045260246000fd5b6000601f19601f8301169050919050565b613704816134cc565b811461370f57600080fd5b50565b61371b816134de565b811461372657600080fd5b50565b613732816134ea565b811461373d57600080fd5b50565b61374981613536565b811461375457600080fd5b5056fe416e204e465420772f20494420257320686173206265656e206d696e74656420746f2025734142434445464748494a4b4c4d4e4f505152535455565758595a6162636465666768696a6b6c6d6e6f707172737475767778797a303132333435363738392b2fa2646970667358221220f7bee8281b83ef77d35a130378bae6b73edb3ec76e45908c0298ad4bd2a5806764736f6c634300080000333c73766720786d6c6e733d27687474703a2f2f7777772e77332e6f72672f323030302f73766727207072657365727665417370656374526174696f3d27784d696e594d696e206d656574272076696577426f783d273020302033353020333530273e3c7374796c653e2e62617365207b2066696c6c3a2077686974653b20666f6e742d66616d696c793a2073657269663b20666f6e742d73697a653a20323470783b207d3c2f7374796c653e3c726563742077696474683d273130302527206865696768743d2731303025272066696c6c3d27626c61636b27202f3e3c7465787420783d273530252720793d273530252720636c6173733d27626173652720646f6d696e616e742d626173656c696e653d276d6964646c652720746578742d616e63686f723d276d6964646c65273e",
  "linkReferences": {},
  "deployedLinkReferences": {}
}