{
  "_format": "hh-sol-artifact-1",
  "contractName": "EhrabNFT",
  "sourceName": "contracts/EhrabNFT.sol",
  "abi": [
    {
      "inputs": [],
      "stateMutability": "nonpayable",
      "type": "constructor"
    },
    {
      "anonymous": false,
      "inputs": [
        {
          "indexed": true,
          "internalType": "address",
          "name": "owner",
          "type": "address"
        },
        {
          "indexed": true,
          "internalType": "address",
          "name": "approved",
          "type": "address"
        },
        {
          "indexed": true,
          "internalType": "uint256",
          "name": "tokenId",
          "type": "uint256"
        }
      ],
      "name": "Approval",
      "type": "event"
    },
    {
      "anonymous": false,
      "inputs": [
        {
          "indexed": true,
          "internalType": "address",
          "name": "owner",
          "type": "address"
        },
        {
          "indexed": true,
          "internalType": "address",
          "name": "operator",
          "type": "address"
        },
        {
          "indexed": false,
          "internalType": "bool",
          "name": "approved",
          "type": "bool"
        }
      ],
      "name": "ApprovalForAll",
      "type": "event"
    },
    {
      "anonymous": false,
      "inputs": [
        {
          "indexed": false,
          "internalType": "address",
          "name": "sender",
          "type": "address"
        },
        {
          "indexed": false,
          "internalType": "uint256",
          "name": "tokenId",
          "type": "uint256"
        }
      ],
      "name": "NewNFTMinted",
      "type": "event"
    },
    {
      "anonymous": false,
      "inputs": [
        {
          "indexed": true,
          "internalType": "address",
          "name": "from",
          "type": "address"
        },
        {
          "indexed": true,
          "internalType": "address",
          "name": "to",
          "type": "address"
        },
        {
          "indexed": true,
          "internalType": "uint256",
          "name": "tokenId",
          "type": "uint256"
        }
      ],
      "name": "Transfer",
      "type": "event"
    },
    {
      "inputs": [
        {
          "internalType": "address",
          "name": "to",
          "type": "address"
        },
        {
          "internalType": "uint256",
          "name": "tokenId",
          "type": "uint256"
        }
      ],
      "name": "approve",
      "outputs": [],
      "stateMutability": "nonpayable",
      "type": "function"
    },
    {
      "inputs": [
        {
          "internalType": "address",
          "name": "owner",
          "type": "address"
        }
      ],
      "name": "balanceOf",
      "outputs": [
        {
          "internalType": "uint256",
          "name": "",
          "type": "uint256"
        }
      ],
      "stateMutability": "view",
      "type": "function"
    },
    {
      "inputs": [
        {
          "internalType": "uint256",
          "name": "tokenId",
          "type": "uint256"
        }
      ],
      "name": "getApproved",
      "outputs": [
        {
          "internalType": "address",
          "name": "",
          "type": "address"
        }
      ],
      "stateMutability": "view",
      "type": "function"
    },
    {
      "inputs": [
        {
          "internalType": "address",
          "name": "owner",
          "type": "address"
        },
        {
          "internalType": "address",
          "name": "operator",
          "type": "address"
        }
      ],
      "name": "isApprovedForAll",
      "outputs": [
        {
          "internalType": "bool",
          "name": "",
          "type": "bool"
        }
      ],
      "stateMutability": "view",
      "type": "function"
    },
    {
      "inputs": [],
      "name": "mintEhrabNFT",
      "outputs": [],
      "stateMutability": "nonpayable",
      "type": "function"
    },
    {
      "inputs": [],
      "name": "name",
      "outputs": [
        {
          "internalType": "string",
          "name": "",
          "type": "string"
        }
      ],
      "stateMutability": "view",
      "type": "function"
    },
    {
      "inputs": [],
      "name": "nftCount",
      "outputs": [
        {
          "internalType": "uint256",
          "name": "",
          "type": "uint256"
        }
      ],
      "stateMutability": "view",
      "type": "function"
    },
    {
      "inputs": [
        {
          "internalType": "uint256",
          "name": "tokenId",
          "type": "uint256"
        }
      ],
      "name": "ownerOf",
      "outputs": [
        {
          "internalType": "address",
          "name": "",
          "type": "address"
        }
      ],
      "stateMutability": "view",
      "type": "function"
    },
    {
      "inputs": [
        {
          "internalType": "uint256",
          "name": "tokenId",
          "type": "uint256"
        }
      ],
      "name": "pickRandomFirstWord",
      "outputs": [
        {
          "internalType": "string",
          "name": "",
          "type": "string"
        }
      ],
      "stateMutability": "view",
      "type": "function"
    },
    {
      "inputs": [
        {
          "internalType": "uint256",
          "name": "tokenId",
          "type": "uint256"
        }
      ],
      "name": "pickRandomSecondWord",
      "outputs": [
        {
          "internalType": "string",
          "name": "",
          "type": "string"
        }
      ],
      "stateMutability": "view",
      "type": "function"
    },
    {
      "inputs": [
        {
          "internalType": "uint256",
          "name": "tokenId",
          "type": "uint256"
        }
      ],
      "name": "pickRandomThirdWord",
      "outputs": [
        {
          "internalType": "string",
          "name": "",
          "type": "string"
        }
      ],
      "stateMutability": "view",
      "type": "function"
    },
    {
      "inputs": [
        {
          "internalType": "address",
          "name": "from",
          "type": "address"
        },
        {
          "internalType": "address",
          "name": "to",
          "type": "address"
        },
        {
          "internalType": "uint256",
          "name": "tokenId",
          "type": "uint256"
        }
      ],
      "name": "safeTransferFrom",
      "outputs": [],
      "stateMutability": "nonpayable",
      "type": "function"
    },
    {
      "inputs": [
        {
          "internalType": "address",
          "name": "from",
          "type": "address"
        },
        {
          "internalType": "address",
          "name": "to",
          "type": "address"
        },
        {
          "internalType": "uint256",
          "name": "tokenId",
          "type": "uint256"
        },
        {
          "internalType": "bytes",
          "name": "_data",
          "type": "bytes"
        }
      ],
      "name": "safeTransferFrom",
      "outputs": [],
      "stateMutability": "nonpayable",
      "type": "function"
    },
    {
      "inputs": [
        {
          "internalType": "address",
          "name": "operator",
          "type": "address"
        },
        {
          "internalType": "bool",
          "name": "approved",
          "type": "bool"
        }
      ],
      "name": "setApprovalForAll",
      "outputs": [],
      "stateMutability": "nonpayable",
      "type": "function"
    },
    {
      "inputs": [
        {
          "internalType": "bytes4",
          "name": "interfaceId",
          "type": "bytes4"
        }
      ],
      "name": "supportsInterface",
      "outputs": [
        {
          "internalType": "bool",
          "name": "",
          "type": "bool"
        }
      ],
      "stateMutability": "view",
      "type": "function"
    },
    {
      "inputs": [],
      "name": "symbol",
      "outputs": [
        {
          "internalType": "string",
          "name": "",
          "type": "string"
        }
      ],
      "stateMutability": "view",
      "type": "function"
    },
    {
      "inputs": [
        {
          "internalType": "uint256",
          "name": "tokenId",
          "type": "uint256"
        }
      ],
      "name": "tokenURI",
      "outputs": [
        {
          "internalType": "string",
          "name": "",
          "type": "string"
        }
      ],
      "stateMutability": "view",
      "type": "function"
    },
    {
      "inputs": [
        {
          "internalType": "address",
          "name": "from",
          "type": "address"
        },
        {
          "internalType": "address",
          "name": "to",
          "type": "address"
        },
        {
          "internalType": "uint256",
          "name": "tokenId",
          "type": "uint256"
        }
      ],
      "name": "transferFrom",
      "outputs": [],
      "stateMutability": "nonpayable",
      "type": "function"
    }
  ],
  "bytecode": "0x6080604052600060085560405180610160016040528061012f8152602001620042a961012f9139600990805190602001906200003d92919062000683565b506040518060c001604052806040518060400160405280600981526020017f46616e746173746963000000000000000000000000000000000000000000000081525081526020016040518060400160405280600781526020017f416d617a696e670000000000000000000000000000000000000000000000000081525081526020016040518060400160405280600581526020017f536d616c6c00000000000000000000000000000000000000000000000000000081525081526020016040518060400160405280600581526020017f4c6172676500000000000000000000000000000000000000000000000000000081525081526020016040518060400160405280600481526020017f487567650000000000000000000000000000000000000000000000000000000081525081526020016040518060400160405280600481526020017f57696c6400000000000000000000000000000000000000000000000000000000815250815250600a906006620001bb92919062000714565b506040518060c001604052806040518060400160405280600581526020017f50686f6e6500000000000000000000000000000000000000000000000000000081525081526020016040518060400160405280600581526020017f576865656c00000000000000000000000000000000000000000000000000000081525081526020016040518060400160405280600381526020017f436172000000000000000000000000000000000000000000000000000000000081525081526020016040518060400160405280600481526020017f53686f650000000000000000000000000000000000000000000000000000000081525081526020016040518060400160405280600781526020017f53636f6f7465720000000000000000000000000000000000000000000000000081525081526020016040518060400160405280600681526020017f4261736b65740000000000000000000000000000000000000000000000000000815250815250600b9060066200033992919062000714565b506040518060c001604052806040518060400160405280600681526020017f4170706c6573000000000000000000000000000000000000000000000000000081525081526020016040518060400160405280600581526020017f547265657300000000000000000000000000000000000000000000000000000081525081526020016040518060400160405280600481526020017f486174730000000000000000000000000000000000000000000000000000000081525081526020016040518060400160405280600781526020017f44756d6d6965730000000000000000000000000000000000000000000000000081525081526020016040518060400160405280600781526020017f42616e616e61730000000000000000000000000000000000000000000000000081525081526020016040518060400160405280600781526020017f4d6f6e6b65797300000000000000000000000000000000000000000000000000815250815250600c906006620004b792919062000714565b50348015620004c557600080fd5b506040518060400160405280600681526020017f45687261624d00000000000000000000000000000000000000000000000000008152506040518060400160405280600281526020017f454800000000000000000000000000000000000000000000000000000000000081525081600090805190602001906200054a92919062000683565b5080600190805190602001906200056392919062000683565b505050620005b16040518060400160405280601e81526020017f57656c636f6d6520746f204568726162277320636f6c6c656374696f6e2e0000815250620005b760201b620011771760201c565b62000935565b6200065781604051602401620005ce919062000849565b6040516020818303038152906040527f41304fac000000000000000000000000000000000000000000000000000000007bffffffffffffffffffffffffffffffffffffffffffffffffffffffff19166020820180517bffffffffffffffffffffffffffffffffffffffffffffffffffffffff83818316178352505050506200065a60201b60201c565b50565b60008151905060006a636f6e736f6c652e6c6f679050602083016000808483855afa5050505050565b8280546200069190620008bf565b90600052602060002090601f016020900481019282620006b5576000855562000701565b82601f10620006d057805160ff191683800117855562000701565b8280016001018555821562000701579182015b8281111562000700578251825591602001919060010190620006e3565b5b5090506200071091906200077b565b5090565b82805482825590600052602060002090810192821562000768579160200282015b82811115620007675782518290805190602001906200075692919062000683565b509160200191906001019062000735565b5b5090506200077791906200079a565b5090565b5b80821115620007965760008160009055506001016200077c565b5090565b5b80821115620007be5760008181620007b49190620007c2565b506001016200079b565b5090565b508054620007d090620008bf565b6000825580601f10620007e4575062000805565b601f0160209004906000526020600020908101906200080491906200077b565b5b50565b600062000815826200086d565b62000821818562000878565b93506200083381856020860162000889565b6200083e8162000924565b840191505092915050565b6000602082019050818103600083015262000865818462000808565b905092915050565b600081519050919050565b600082825260208201905092915050565b60005b83811015620008a95780820151818401526020810190506200088c565b83811115620008b9576000848401525b50505050565b60006002820490506001821680620008d857607f821691505b60208210811415620008ef57620008ee620008f5565b5b50919050565b7f4e487b7100000000000000000000000000000000000000000000000000000000600052602260045260246000fd5b6000601f19601f8301169050919050565b61396480620009456000396000f3fe608060405234801561001057600080fd5b50600436106101165760003560e01c806370a08231116100a2578063b187301f11610071578063b187301f146102df578063b88d4fde1461030f578063c575757a1461032b578063c87b56dd1461035b578063e985e9c51461038b57610116565b806370a082311461026b578063838d17c01461029b57806395d89b41146102a5578063a22cb465146102c357610116565b80630af2c6ca116100e95780630af2c6ca146101b557806323b872dd146101d35780632de38d68146101ef57806342842e0e1461021f5780636352211e1461023b57610116565b806301ffc9a71461011b57806306fdde031461014b578063081812fc14610169578063095ea7b314610199575b600080fd5b61013560048036038101906101309190612558565b6103bb565b60405161014291906131ba565b60405180910390f35b61015361049d565b60405161016091906131d5565b60405180910390f35b610183600480360381019061017e91906125aa565b61052f565b604051610190919061312a565b60405180910390f35b6101b360048036038101906101ae919061251c565b6105b4565b005b6101bd6106cc565b6040516101ca9190613455565b60405180910390f35b6101ed60048036038101906101e89190612416565b6106d2565b005b610209600480360381019061020491906125aa565b610732565b60405161021691906131d5565b60405180910390f35b61023960048036038101906102349190612416565b610850565b005b610255600480360381019061025091906125aa565b610870565b604051610262919061312a565b60405180910390f35b610285600480360381019061028091906123b1565b610922565b6040516102929190613455565b60405180910390f35b6102a36109da565b005b6102ad610c4b565b6040516102ba91906131d5565b60405180910390f35b6102dd60048036038101906102d891906124e0565b610cdd565b005b6102f960048036038101906102f491906125aa565b610cf3565b60405161030691906131d5565b60405180910390f35b61032960048036038101906103249190612465565b610e11565b005b610345600480360381019061034091906125aa565b610e73565b60405161035291906131d5565b60405180910390f35b610375600480360381019061037091906125aa565b610f91565b60405161038291906131d5565b60405180910390f35b6103a560048036038101906103a091906123da565b6110e3565b6040516103b291906131ba565b60405180910390f35b60007f80ac58cd000000000000000000000000000000000000000000000000000000007bffffffffffffffffffffffffffffffffffffffffffffffffffffffff1916827bffffffffffffffffffffffffffffffffffffffffffffffffffffffff1916148061048657507f5b5e139f000000000000000000000000000000000000000000000000000000007bffffffffffffffffffffffffffffffffffffffffffffffffffffffff1916827bffffffffffffffffffffffffffffffffffffffffffffffffffffffff1916145b80610496575061049582611210565b5b9050919050565b6060600080546104ac906136f4565b80601f01602080910402602001604051908101604052809291908181526020018280546104d8906136f4565b80156105255780601f106104fa57610100808354040283529160200191610525565b820191906000526020600020905b81548152906001019060200180831161050857829003601f168201915b5050505050905090565b600061053a8261127a565b610579576040517f08c379a0000000000000000000000000000000000000000000000000000000008152600401610570906133b5565b60405180910390fd5b6004600083815260200190815260200160002060009054906101000a900473ffffffffffffffffffffffffffffffffffffffff169050919050565b60006105bf82610870565b90508073ffffffffffffffffffffffffffffffffffffffff168373ffffffffffffffffffffffffffffffffffffffff161415610630576040517f08c379a000000000000000000000000000000000000000000000000000000000815260040161062790613415565b60405180910390fd5b8073ffffffffffffffffffffffffffffffffffffffff1661064f6112e6565b73ffffffffffffffffffffffffffffffffffffffff16148061067e575061067d816106786112e6565b6110e3565b5b6106bd576040517f08c379a00000000000000000000000000000000000000000000000000000000081526004016106b4906132d5565b60405180910390fd5b6106c783836112ee565b505050565b60085481565b6106e36106dd6112e6565b826113a7565b610722576040517f08c379a000000000000000000000000000000000000000000000000000000000815260040161071990613435565b60405180910390fd5b61072d838383611485565b505050565b60606000610766610742846116e1565b60405160200161075291906130e6565b60405160208183030381529060405261188e565b9050600a8054905081610779919061376f565b9050600a81815481106107b5577f4e487b7100000000000000000000000000000000000000000000000000000000600052603260045260246000fd5b9060005260206000200180546107ca906136f4565b80601f01602080910402602001604051908101604052809291908181526020018280546107f6906136f4565b80156108435780601f1061081857610100808354040283529160200191610843565b820191906000526020600020905b81548152906001019060200180831161082657829003601f168201915b5050505050915050919050565b61086b83838360405180602001604052806000815250610e11565b505050565b6000806002600084815260200190815260200160002060009054906101000a900473ffffffffffffffffffffffffffffffffffffffff169050600073ffffffffffffffffffffffffffffffffffffffff168173ffffffffffffffffffffffffffffffffffffffff161415610919576040517f08c379a000000000000000000000000000000000000000000000000000000000815260040161091090613315565b60405180910390fd5b80915050919050565b60008073ffffffffffffffffffffffffffffffffffffffff168273ffffffffffffffffffffffffffffffffffffffff161415610993576040517f08c379a000000000000000000000000000000000000000000000000000000000815260040161098a906132f5565b60405180910390fd5b600360008373ffffffffffffffffffffffffffffffffffffffff1673ffffffffffffffffffffffffffffffffffffffff168152602001908152602001600020549050919050565b603260085410610a1f576040517f08c379a0000000000000000000000000000000000000000000000000000000008152600401610a1690613355565b60405180910390fd5b6000610a2b60076118c1565b90506000610a3882610732565b90506000610a4583610cf3565b90506000610a5284610e73565b90506000838383604051602001610a6b93929190612ffd565b60405160208183030381529060405290506000600982604051602001610a9292919061302e565b60405160208183030381529060405290506000610ad783610ab2846118cf565b604051602001610ac39291906130a1565b6040516020818303038152906040526118cf565b9050600081604051602001610aec9190613108565b6040516020818303038152906040529050610b3b6040518060400160405280601581526020017f0a2d2d2d2d2d2d2d2d2d2d2d2d2d2d2d2d2d2d2d2d0000000000000000000000815250611177565b610b796040518060400160405280600681526020017f5552693a200a0000000000000000000000000000000000000000000000000000815250611177565b610b8281611177565b610bc06040518060400160405280601581526020017f2d2d2d2d2d2d2d2d2d2d2d2d2d2d2d2d2d2d2d2d0a0000000000000000000000815250611177565b610bca3389611a6e565b610bd48882611a8c565b610bf76040518060600160405280602581526020016138ca602591398933611b00565b87600881905550610c086007611b9f565b7f1c05098ed1ff38e6238d2b1b04b2c7977d4c94ce651bda6473f9dba8dbf01da03389604051610c39929190613191565b60405180910390a15050505050505050565b606060018054610c5a906136f4565b80601f0160208091040260200160405190810160405280929190818152602001828054610c86906136f4565b8015610cd35780601f10610ca857610100808354040283529160200191610cd3565b820191906000526020600020905b815481529060010190602001808311610cb657829003601f168201915b5050505050905090565b610cef610ce86112e6565b8383611bb5565b5050565b60606000610d27610d03846116e1565b604051602001610d13919061307f565b60405160208183030381529060405261188e565b9050600b8054905081610d3a919061376f565b9050600b8181548110610d76577f4e487b7100000000000000000000000000000000000000000000000000000000600052603260045260246000fd5b906000526020600020018054610d8b906136f4565b80601f0160208091040260200160405190810160405280929190818152602001828054610db7906136f4565b8015610e045780601f10610dd957610100808354040283529160200191610e04565b820191906000526020600020905b815481529060010190602001808311610de757829003601f168201915b5050505050915050919050565b610e22610e1c6112e6565b836113a7565b610e61576040517f08c379a0000000000000000000000000000000000000000000000000000000008152600401610e5890613435565b60405180910390fd5b610e6d84848484611d22565b50505050565b60606000610ea7610e83846116e1565b604051602001610e93919061305d565b60405160208183030381529060405261188e565b9050600c8054905081610eba919061376f565b9050600c8181548110610ef6577f4e487b7100000000000000000000000000000000000000000000000000000000600052603260045260246000fd5b906000526020600020018054610f0b906136f4565b80601f0160208091040260200160405190810160405280929190818152602001828054610f37906136f4565b8015610f845780601f10610f5957610100808354040283529160200191610f84565b820191906000526020600020905b815481529060010190602001808311610f6757829003601f168201915b5050505050915050919050565b6060610f9c8261127a565b610fdb576040517f08c379a0000000000000000000000000000000000000000000000000000000008152600401610fd290613395565b60405180910390fd5b6000600660008481526020019081526020016000208054610ffb906136f4565b80601f0160208091040260200160405190810160405280929190818152602001828054611027906136f4565b80156110745780601f1061104957610100808354040283529160200191611074565b820191906000526020600020905b81548152906001019060200180831161105757829003601f168201915b505050505090506000611085611d7e565b905060008151141561109b5781925050506110de565b6000825111156110d05780826040516020016110b8929190612fd9565b604051602081830303815290604052925050506110de565b6110d984611d95565b925050505b919050565b6000600560008473ffffffffffffffffffffffffffffffffffffffff1673ffffffffffffffffffffffffffffffffffffffff16815260200190815260200160002060008373ffffffffffffffffffffffffffffffffffffffff1673ffffffffffffffffffffffffffffffffffffffff16815260200190815260200160002060009054906101000a900460ff16905092915050565b61120d8160405160240161118b91906131d5565b6040516020818303038152906040527f41304fac000000000000000000000000000000000000000000000000000000007bffffffffffffffffffffffffffffffffffffffffffffffffffffffff19166020820180517bffffffffffffffffffffffffffffffffffffffffffffffffffffffff8381831617835250505050611e3c565b50565b60007f01ffc9a7000000000000000000000000000000000000000000000000000000007bffffffffffffffffffffffffffffffffffffffffffffffffffffffff1916827bffffffffffffffffffffffffffffffffffffffffffffffffffffffff1916149050919050565b60008073ffffffffffffffffffffffffffffffffffffffff166002600084815260200190815260200160002060009054906101000a900473ffffffffffffffffffffffffffffffffffffffff1673ffffffffffffffffffffffffffffffffffffffff1614159050919050565b600033905090565b816004600083815260200190815260200160002060006101000a81548173ffffffffffffffffffffffffffffffffffffffff021916908373ffffffffffffffffffffffffffffffffffffffff160217905550808273ffffffffffffffffffffffffffffffffffffffff1661136183610870565b73ffffffffffffffffffffffffffffffffffffffff167f8c5be1e5ebec7d5bd14f71427d1e84f3dd0314c0f7b2291e5b200ac8c7c3b92560405160405180910390a45050565b60006113b28261127a565b6113f1576040517f08c379a00000000000000000000000000000000000000000000000000000000081526004016113e8906132b5565b60405180910390fd5b60006113fc83610870565b90508073ffffffffffffffffffffffffffffffffffffffff168473ffffffffffffffffffffffffffffffffffffffff16148061146b57508373ffffffffffffffffffffffffffffffffffffffff166114538461052f565b73ffffffffffffffffffffffffffffffffffffffff16145b8061147c575061147b81856110e3565b5b91505092915050565b8273ffffffffffffffffffffffffffffffffffffffff166114a582610870565b73ffffffffffffffffffffffffffffffffffffffff16146114fb576040517f08c379a00000000000000000000000000000000000000000000000000000000081526004016114f2906133d5565b60405180910390fd5b600073ffffffffffffffffffffffffffffffffffffffff168273ffffffffffffffffffffffffffffffffffffffff16141561156b576040517f08c379a000000000000000000000000000000000000000000000000000000000815260040161156290613275565b60405180910390fd5b611576838383611e65565b6115816000826112ee565b6001600360008573ffffffffffffffffffffffffffffffffffffffff1673ffffffffffffffffffffffffffffffffffffffff16815260200190815260200160002060008282546115d1919061360a565b925050819055506001600360008473ffffffffffffffffffffffffffffffffffffffff1673ffffffffffffffffffffffffffffffffffffffff16815260200190815260200160002060008282546116289190613529565b92505081905550816002600083815260200190815260200160002060006101000a81548173ffffffffffffffffffffffffffffffffffffffff021916908373ffffffffffffffffffffffffffffffffffffffff160217905550808273ffffffffffffffffffffffffffffffffffffffff168473ffffffffffffffffffffffffffffffffffffffff167fddf252ad1be2c89b69c2b068fc378daa952ba7f163c4a11628f55a4df523b3ef60405160405180910390a4505050565b60606000821415611729576040518060400160405280600181526020017f30000000000000000000000000000000000000000000000000000000000000008152509050611889565b600082905060005b6000821461175b57808061174490613726565b915050600a82611754919061357f565b9150611731565b60008167ffffffffffffffff81111561179d577f4e487b7100000000000000000000000000000000000000000000000000000000600052604160045260246000fd5b6040519080825280601f01601f1916602001820160405280156117cf5781602001600182028036833780820191505090505b5090505b60008514611882576001826117e8919061360a565b9150600a856117f7919061376f565b60306118039190613529565b60f81b81838151811061183f577f4e487b7100000000000000000000000000000000000000000000000000000000600052603260045260246000fd5b60200101907effffffffffffffffffffffffffffffffffffffffffffffffffffffffffffff1916908160001a905350600a8561187b919061357f565b94506117d3565b8093505050505b919050565b6000816040516020016118a19190612fc2565b6040516020818303038152906040528051906020012060001c9050919050565b600081600001549050919050565b60606000825114156118f257604051806020016040528060008152509050611a69565b60006040518060600160405280604081526020016138ef60409139905060006003600285516119219190613529565b61192b919061357f565b600461193791906135b0565b905060006020826119489190613529565b67ffffffffffffffff811115611987577f4e487b7100000000000000000000000000000000000000000000000000000000600052604160045260246000fd5b6040519080825280601f01601f1916602001820160405280156119b95781602001600182028036833780820191505090505b509050818152600183018586518101602084015b81831015611a28576003830192508251603f8160121c168501518253600182019150603f81600c1c168501518253600182019150603f8160061c168501518253600182019150603f81168501518253600182019150506119cd565b600389510660018114611a425760028114611a5257611a5d565b613d3d60f01b6002830352611a5d565b603d60f81b60018303525b50505050508093505050505b919050565b611a88828260405180602001604052806000815250611e6a565b5050565b611a958261127a565b611ad4576040517f08c379a0000000000000000000000000000000000000000000000000000000008152600401611acb90613335565b60405180910390fd5b80600660008481526020019081526020016000209080519060200190611afb92919061223d565b505050565b611b9a838383604051602401611b18939291906131f7565b6040516020818303038152906040527fe3849f79000000000000000000000000000000000000000000000000000000007bffffffffffffffffffffffffffffffffffffffffffffffffffffffff19166020820180517bffffffffffffffffffffffffffffffffffffffffffffffffffffffff8381831617835250505050611e3c565b505050565b6001816000016000828254019250508190555050565b8173ffffffffffffffffffffffffffffffffffffffff168373ffffffffffffffffffffffffffffffffffffffff161415611c24576040517f08c379a0000000000000000000000000000000000000000000000000000000008152600401611c1b90613295565b60405180910390fd5b80600560008573ffffffffffffffffffffffffffffffffffffffff1673ffffffffffffffffffffffffffffffffffffffff16815260200190815260200160002060008473ffffffffffffffffffffffffffffffffffffffff1673ffffffffffffffffffffffffffffffffffffffff16815260200190815260200160002060006101000a81548160ff0219169083151502179055508173ffffffffffffffffffffffffffffffffffffffff168373ffffffffffffffffffffffffffffffffffffffff167f17307eab39ab6107e8899845ad3d59bd9653f200f220920489ca2b5937696c3183604051611d1591906131ba565b60405180910390a3505050565b611d2d848484611485565b611d3984848484611ec5565b611d78576040517f08c379a0000000000000000000000000000000000000000000000000000000008152600401611d6f90613235565b60405180910390fd5b50505050565b606060405180602001604052806000815250905090565b6060611da08261127a565b611ddf576040517f08c379a0000000000000000000000000000000000000000000000000000000008152600401611dd6906133f5565b60405180910390fd5b6000611de9611d7e565b90506000815111611e095760405180602001604052806000815250611e34565b80611e13846116e1565b604051602001611e24929190612fd9565b6040516020818303038152906040525b915050919050565b60008151905060006a636f6e736f6c652e6c6f679050602083016000808483855afa5050505050565b505050565b611e74838361205c565b611e816000848484611ec5565b611ec0576040517f08c379a0000000000000000000000000000000000000000000000000000000008152600401611eb790613235565b60405180910390fd5b505050565b6000611ee68473ffffffffffffffffffffffffffffffffffffffff1661222a565b1561204f578373ffffffffffffffffffffffffffffffffffffffff1663150b7a02611f0f6112e6565b8786866040518563ffffffff1660e01b8152600401611f319493929190613145565b602060405180830381600087803b158015611f4b57600080fd5b505af1925050508015611f7c57506040513d601f19601f82011682018060405250810190611f799190612581565b60015b611fff573d8060008114611fac576040519150601f19603f3d011682016040523d82523d6000602084013e611fb1565b606091505b50600081511415611ff7576040517f08c379a0000000000000000000000000000000000000000000000000000000008152600401611fee90613235565b60405180910390fd5b805181602001fd5b63150b7a0260e01b7bffffffffffffffffffffffffffffffffffffffffffffffffffffffff1916817bffffffffffffffffffffffffffffffffffffffffffffffffffffffff191614915050612054565b600190505b949350505050565b600073ffffffffffffffffffffffffffffffffffffffff168273ffffffffffffffffffffffffffffffffffffffff1614156120cc576040517f08c379a00000000000000000000000000000000000000000000000000000000081526004016120c390613375565b60405180910390fd5b6120d58161127a565b15612115576040517f08c379a000000000000000000000000000000000000000000000000000000000815260040161210c90613255565b60405180910390fd5b61212160008383611e65565b6001600360008473ffffffffffffffffffffffffffffffffffffffff1673ffffffffffffffffffffffffffffffffffffffff16815260200190815260200160002060008282546121719190613529565b92505081905550816002600083815260200190815260200160002060006101000a81548173ffffffffffffffffffffffffffffffffffffffff021916908373ffffffffffffffffffffffffffffffffffffffff160217905550808273ffffffffffffffffffffffffffffffffffffffff16600073ffffffffffffffffffffffffffffffffffffffff167fddf252ad1be2c89b69c2b068fc378daa952ba7f163c4a11628f55a4df523b3ef60405160405180910390a45050565b600080823b905060008111915050919050565b828054612249906136f4565b90600052602060002090601f01602090048101928261226b57600085556122b2565b82601f1061228457805160ff19168380011785556122b2565b828001600101855582156122b2579182015b828111156122b1578251825591602001919060010190612296565b5b5090506122bf91906122c3565b5090565b5b808211156122dc5760008160009055506001016122c4565b5090565b60006122f36122ee846134a1565b613470565b90508281526020810184848401111561230b57600080fd5b6123168482856136b2565b509392505050565b60008135905061232d8161386d565b92915050565b60008135905061234281613884565b92915050565b6000813590506123578161389b565b92915050565b60008151905061236c8161389b565b92915050565b600082601f83011261238357600080fd5b81356123938482602086016122e0565b91505092915050565b6000813590506123ab816138b2565b92915050565b6000602082840312156123c357600080fd5b60006123d18482850161231e565b91505092915050565b600080604083850312156123ed57600080fd5b60006123fb8582860161231e565b925050602061240c8582860161231e565b9150509250929050565b60008060006060848603121561242b57600080fd5b60006124398682870161231e565b935050602061244a8682870161231e565b925050604061245b8682870161239c565b9150509250925092565b6000806000806080858703121561247b57600080fd5b60006124898782880161231e565b945050602061249a8782880161231e565b93505060406124ab8782880161239c565b925050606085013567ffffffffffffffff8111156124c857600080fd5b6124d487828801612372565b91505092959194509250565b600080604083850312156124f357600080fd5b60006125018582860161231e565b925050602061251285828601612333565b9150509250929050565b6000806040838503121561252f57600080fd5b600061253d8582860161231e565b925050602061254e8582860161239c565b9150509250929050565b60006020828403121561256a57600080fd5b600061257884828501612348565b91505092915050565b60006020828403121561259357600080fd5b60006125a18482850161235d565b91505092915050565b6000602082840312156125bc57600080fd5b60006125ca8482850161239c565b91505092915050565b6125dc8161363e565b82525050565b6125eb81613650565b82525050565b60006125fc826134e6565b61260681856134fc565b93506126168185602086016136c1565b61261f8161385c565b840191505092915050565b6000612635826134f1565b61263f818561350d565b935061264f8185602086016136c1565b6126588161385c565b840191505092915050565b600061266e826134f1565b612678818561351e565b93506126888185602086016136c1565b80840191505092915050565b600081546126a1816136f4565b6126ab818661351e565b945060018216600081146126c657600181146126d75761270a565b60ff1983168652818601935061270a565b6126e0856134d1565b60005b83811015612702578154818901526001820191506020810190506126e3565b838801955050505b50505092915050565b600061272060328361350d565b91507f4552433732313a207472616e7366657220746f206e6f6e20455243373231526560008301527f63656976657220696d706c656d656e74657200000000000000000000000000006020830152604082019050919050565b6000612786601c8361350d565b91507f4552433732313a20746f6b656e20616c7265616479206d696e746564000000006000830152602082019050919050565b60006127c6600a8361351e565b91507f54484952445f574f5244000000000000000000000000000000000000000000006000830152600a82019050919050565b600061280660248361350d565b91507f4552433732313a207472616e7366657220746f20746865207a65726f2061646460008301527f72657373000000000000000000000000000000000000000000000000000000006020830152604082019050919050565b600061286c60198361350d565b91507f4552433732313a20617070726f766520746f2063616c6c6572000000000000006000830152602082019050919050565b60006128ac60638361351e565b91507f222c20226465736372697074696f6e223a20224120686967686c79206163636c60008301527f61696d656420636f6c6c656374696f6e206f6620737175617265732e222c202260208301527f696d616765223a2022646174613a696d6167652f7376672b786d6c3b6261736560408301527f36342c00000000000000000000000000000000000000000000000000000000006060830152606382019050919050565b600061295e600b8361351e565b91507f5345434f4e445f574f52440000000000000000000000000000000000000000006000830152600b82019050919050565b600061299e602c8361350d565b91507f4552433732313a206f70657261746f7220717565727920666f72206e6f6e657860008301527f697374656e7420746f6b656e00000000000000000000000000000000000000006020830152604082019050919050565b6000612a04600d8361351e565b91507f3c2f746578743e3c2f7376673e000000000000000000000000000000000000006000830152600d82019050919050565b6000612a4460388361350d565b91507f4552433732313a20617070726f76652063616c6c6572206973206e6f74206f7760008301527f6e6572206e6f7220617070726f76656420666f7220616c6c00000000000000006020830152604082019050919050565b6000612aaa602a8361350d565b91507f4552433732313a2062616c616e636520717565727920666f7220746865207a6560008301527f726f2061646472657373000000000000000000000000000000000000000000006020830152604082019050919050565b6000612b1060298361350d565b91507f4552433732313a206f776e657220717565727920666f72206e6f6e657869737460008301527f656e7420746f6b656e00000000000000000000000000000000000000000000006020830152604082019050919050565b6000612b76602e8361350d565b91507f45524337323155524953746f726167653a2055524920736574206f66206e6f6e60008301527f6578697374656e7420746f6b656e0000000000000000000000000000000000006020830152604082019050919050565b6000612bdc601a8361350d565b91507f416c6c204e4654732068617665206265656e206d696e746564210000000000006000830152602082019050919050565b6000612c1c60028361351e565b91507f227d0000000000000000000000000000000000000000000000000000000000006000830152600282019050919050565b6000612c5c60208361350d565b91507f4552433732313a206d696e7420746f20746865207a65726f20616464726573736000830152602082019050919050565b6000612c9c60318361350d565b91507f45524337323155524953746f726167653a2055524920717565727920666f722060008301527f6e6f6e6578697374656e7420746f6b656e0000000000000000000000000000006020830152604082019050919050565b6000612d02602c8361350d565b91507f4552433732313a20617070726f76656420717565727920666f72206e6f6e657860008301527f697374656e7420746f6b656e00000000000000000000000000000000000000006020830152604082019050919050565b6000612d6860298361350d565b91507f4552433732313a207472616e73666572206f6620746f6b656e2074686174206960008301527f73206e6f74206f776e00000000000000000000000000000000000000000000006020830152604082019050919050565b6000612dce602f8361350d565b91507f4552433732314d657461646174613a2055524920717565727920666f72206e6f60008301527f6e6578697374656e7420746f6b656e00000000000000000000000000000000006020830152604082019050919050565b6000612e34600a8361351e565b91507f7b226e616d65223a2022000000000000000000000000000000000000000000006000830152600a82019050919050565b6000612e7460218361350d565b91507f4552433732313a20617070726f76616c20746f2063757272656e74206f776e6560008301527f72000000000000000000000000000000000000000000000000000000000000006020830152604082019050919050565b6000612eda600a8361351e565b91507f46495253545f574f5244000000000000000000000000000000000000000000006000830152600a82019050919050565b6000612f1a601d8361351e565b91507f646174613a6170706c69636174696f6e2f6a736f6e3b6261736536342c0000006000830152601d82019050919050565b6000612f5a60318361350d565b91507f4552433732313a207472616e736665722063616c6c6572206973206e6f74206f60008301527f776e6572206e6f7220617070726f7665640000000000000000000000000000006020830152604082019050919050565b612fbc816136a8565b82525050565b6000612fce8284612663565b915081905092915050565b6000612fe58285612663565b9150612ff18284612663565b91508190509392505050565b60006130098286612663565b91506130158285612663565b91506130218284612663565b9150819050949350505050565b600061303a8285612694565b91506130468284612663565b9150613051826129f7565b91508190509392505050565b6000613068826127b9565b91506130748284612663565b915081905092915050565b600061308a82612951565b91506130968284612663565b915081905092915050565b60006130ac82612e27565b91506130b88285612663565b91506130c38261289f565b91506130cf8284612663565b91506130da82612c0f565b91508190509392505050565b60006130f182612ecd565b91506130fd8284612663565b915081905092915050565b600061311382612f0d565b915061311f8284612663565b915081905092915050565b600060208201905061313f60008301846125d3565b92915050565b600060808201905061315a60008301876125d3565b61316760208301866125d3565b6131746040830185612fb3565b818103606083015261318681846125f1565b905095945050505050565b60006040820190506131a660008301856125d3565b6131b36020830184612fb3565b9392505050565b60006020820190506131cf60008301846125e2565b92915050565b600060208201905081810360008301526131ef818461262a565b905092915050565b60006060820190508181036000830152613211818661262a565b90506132206020830185612fb3565b61322d60408301846125d3565b949350505050565b6000602082019050818103600083015261324e81612713565b9050919050565b6000602082019050818103600083015261326e81612779565b9050919050565b6000602082019050818103600083015261328e816127f9565b9050919050565b600060208201905081810360008301526132ae8161285f565b9050919050565b600060208201905081810360008301526132ce81612991565b9050919050565b600060208201905081810360008301526132ee81612a37565b9050919050565b6000602082019050818103600083015261330e81612a9d565b9050919050565b6000602082019050818103600083015261332e81612b03565b9050919050565b6000602082019050818103600083015261334e81612b69565b9050919050565b6000602082019050818103600083015261336e81612bcf565b9050919050565b6000602082019050818103600083015261338e81612c4f565b9050919050565b600060208201905081810360008301526133ae81612c8f565b9050919050565b600060208201905081810360008301526133ce81612cf5565b9050919050565b600060208201905081810360008301526133ee81612d5b565b9050919050565b6000602082019050818103600083015261340e81612dc1565b9050919050565b6000602082019050818103600083015261342e81612e67565b9050919050565b6000602082019050818103600083015261344e81612f4d565b9050919050565b600060208201905061346a6000830184612fb3565b92915050565b6000604051905081810181811067ffffffffffffffff821117156134975761349661382d565b5b8060405250919050565b600067ffffffffffffffff8211156134bc576134bb61382d565b5b601f19601f8301169050602081019050919050565b60008190508160005260206000209050919050565b600081519050919050565b600081519050919050565b600082825260208201905092915050565b600082825260208201905092915050565b600081905092915050565b6000613534826136a8565b915061353f836136a8565b9250827fffffffffffffffffffffffffffffffffffffffffffffffffffffffffffffffff03821115613574576135736137a0565b5b828201905092915050565b600061358a826136a8565b9150613595836136a8565b9250826135a5576135a46137cf565b5b828204905092915050565b60006135bb826136a8565b91506135c6836136a8565b9250817fffffffffffffffffffffffffffffffffffffffffffffffffffffffffffffffff04831182151516156135ff576135fe6137a0565b5b828202905092915050565b6000613615826136a8565b9150613620836136a8565b925082821015613633576136326137a0565b5b828203905092915050565b600061364982613688565b9050919050565b60008115159050919050565b60007fffffffff0000000000000000000000000000000000000000000000000000000082169050919050565b600073ffffffffffffffffffffffffffffffffffffffff82169050919050565b6000819050919050565b82818337600083830152505050565b60005b838110156136df5780820151818401526020810190506136c4565b838111156136ee576000848401525b50505050565b6000600282049050600182168061370c57607f821691505b602082108114156137205761371f6137fe565b5b50919050565b6000613731826136a8565b91507fffffffffffffffffffffffffffffffffffffffffffffffffffffffffffffffff821415613764576137636137a0565b5b600182019050919050565b600061377a826136a8565b9150613785836136a8565b925082613795576137946137cf565b5b828206905092915050565b7f4e487b7100000000000000000000000000000000000000000000000000000000600052601160045260246000fd5b7f4e487b7100000000000000000000000000000000000000000000000000000000600052601260045260246000fd5b7f4e487b7100000000000000000000000000000000000000000000000000000000600052602260045260246000fd5b7f4e487b7100000000000000000000000000000000000000000000000000000000600052604160045260246000fd5b6000601f19601f8301169050919050565b6138768161363e565b811461388157600080fd5b50565b61388d81613650565b811461389857600080fd5b50565b6138a48161365c565b81146138af57600080fd5b50565b6138bb816136a8565b81146138c657600080fd5b5056fe416e204e465420772f20494420257320686173206265656e206d696e74656420746f2025734142434445464748494a4b4c4d4e4f505152535455565758595a6162636465666768696a6b6c6d6e6f707172737475767778797a303132333435363738392b2fa2646970667358221220a4347a42933c1e94cd7848fdca373b092c24e6330f36c1f51c6a9e84a1896a1264736f6c634300080000333c73766720786d6c6e733d27687474703a2f2f7777772e77332e6f72672f323030302f73766727207072657365727665417370656374526174696f3d27784d696e594d696e206d656574272076696577426f783d273020302033353020333530273e3c7374796c653e2e62617365207b2066696c6c3a2077686974653b20666f6e742d66616d696c793a2073657269663b20666f6e742d73697a653a20323470783b207d3c2f7374796c653e3c726563742077696474683d273130302527206865696768743d2731303025272066696c6c3d27626c61636b27202f3e3c7465787420783d273530252720793d273530252720636c6173733d27626173652720646f6d696e616e742d626173656c696e653d276d6964646c652720746578742d616e63686f723d276d6964646c65273e",
  "linkReferences": {},
  "deployedLinkReferences": {}
}