{
  "_format": "hh-sol-artifact-1",
  "contractName": "EhrabNFT",
  "sourceName": "contracts/EhrabNFT.sol",
  "abi": [
    {
      "inputs": [],
      "stateMutability": "nonpayable",
      "type": "constructor"
    },
    {
      "anonymous": false,
      "inputs": [
        {
          "indexed": true,
          "internalType": "address",
          "name": "owner",
          "type": "address"
        },
        {
          "indexed": true,
          "internalType": "address",
          "name": "approved",
          "type": "address"
        },
        {
          "indexed": true,
          "internalType": "uint256",
          "name": "tokenId",
          "type": "uint256"
        }
      ],
      "name": "Approval",
      "type": "event"
    },
    {
      "anonymous": false,
      "inputs": [
        {
          "indexed": true,
          "internalType": "address",
          "name": "owner",
          "type": "address"
        },
        {
          "indexed": true,
          "internalType": "address",
          "name": "operator",
          "type": "address"
        },
        {
          "indexed": false,
          "internalType": "bool",
          "name": "approved",
          "type": "bool"
        }
      ],
      "name": "ApprovalForAll",
      "type": "event"
    },
    {
      "anonymous": false,
      "inputs": [
        {
          "indexed": false,
          "internalType": "address",
          "name": "sender",
          "type": "address"
        },
        {
          "indexed": false,
          "internalType": "uint256",
          "name": "tokenId",
          "type": "uint256"
        }
      ],
      "name": "NewNFTMinted",
      "type": "event"
    },
    {
      "anonymous": false,
      "inputs": [
        {
          "indexed": true,
          "internalType": "address",
          "name": "from",
          "type": "address"
        },
        {
          "indexed": true,
          "internalType": "address",
          "name": "to",
          "type": "address"
        },
        {
          "indexed": true,
          "internalType": "uint256",
          "name": "tokenId",
          "type": "uint256"
        }
      ],
      "name": "Transfer",
      "type": "event"
    },
    {
      "inputs": [
        {
          "internalType": "address",
          "name": "to",
          "type": "address"
        },
        {
          "internalType": "uint256",
          "name": "tokenId",
          "type": "uint256"
        }
      ],
      "name": "approve",
      "outputs": [],
      "stateMutability": "nonpayable",
      "type": "function"
    },
    {
      "inputs": [
        {
          "internalType": "address",
          "name": "owner",
          "type": "address"
        }
      ],
      "name": "balanceOf",
      "outputs": [
        {
          "internalType": "uint256",
          "name": "",
          "type": "uint256"
        }
      ],
      "stateMutability": "view",
      "type": "function"
    },
    {
      "inputs": [
        {
          "internalType": "uint256",
          "name": "tokenId",
          "type": "uint256"
        }
      ],
      "name": "getApproved",
      "outputs": [
        {
          "internalType": "address",
          "name": "",
          "type": "address"
        }
      ],
      "stateMutability": "view",
      "type": "function"
    },
    {
      "inputs": [
        {
          "internalType": "address",
          "name": "owner",
          "type": "address"
        },
        {
          "internalType": "address",
          "name": "operator",
          "type": "address"
        }
      ],
      "name": "isApprovedForAll",
      "outputs": [
        {
          "internalType": "bool",
          "name": "",
          "type": "bool"
        }
      ],
      "stateMutability": "view",
      "type": "function"
    },
    {
      "inputs": [],
      "name": "mintEhrabNFT",
      "outputs": [],
      "stateMutability": "nonpayable",
      "type": "function"
    },
    {
      "inputs": [],
      "name": "name",
      "outputs": [
        {
          "internalType": "string",
          "name": "",
          "type": "string"
        }
      ],
      "stateMutability": "view",
      "type": "function"
    },
    {
      "inputs": [],
      "name": "nftCount",
      "outputs": [
        {
          "internalType": "uint256",
          "name": "",
          "type": "uint256"
        }
      ],
      "stateMutability": "view",
      "type": "function"
    },
    {
      "inputs": [
        {
          "internalType": "uint256",
          "name": "tokenId",
          "type": "uint256"
        }
      ],
      "name": "ownerOf",
      "outputs": [
        {
          "internalType": "address",
          "name": "",
          "type": "address"
        }
      ],
      "stateMutability": "view",
      "type": "function"
    },
    {
      "inputs": [
        {
          "internalType": "uint256",
          "name": "tokenId",
          "type": "uint256"
        }
      ],
      "name": "pickRandomFirstWord",
      "outputs": [
        {
          "internalType": "string",
          "name": "",
          "type": "string"
        }
      ],
      "stateMutability": "view",
      "type": "function"
    },
    {
      "inputs": [
        {
          "internalType": "uint256",
          "name": "tokenId",
          "type": "uint256"
        }
      ],
      "name": "pickRandomSecondWord",
      "outputs": [
        {
          "internalType": "string",
          "name": "",
          "type": "string"
        }
      ],
      "stateMutability": "view",
      "type": "function"
    },
    {
      "inputs": [
        {
          "internalType": "uint256",
          "name": "tokenId",
          "type": "uint256"
        }
      ],
      "name": "pickRandomThirdWord",
      "outputs": [
        {
          "internalType": "string",
          "name": "",
          "type": "string"
        }
      ],
      "stateMutability": "view",
      "type": "function"
    },
    {
      "inputs": [
        {
          "internalType": "address",
          "name": "from",
          "type": "address"
        },
        {
          "internalType": "address",
          "name": "to",
          "type": "address"
        },
        {
          "internalType": "uint256",
          "name": "tokenId",
          "type": "uint256"
        }
      ],
      "name": "safeTransferFrom",
      "outputs": [],
      "stateMutability": "nonpayable",
      "type": "function"
    },
    {
      "inputs": [
        {
          "internalType": "address",
          "name": "from",
          "type": "address"
        },
        {
          "internalType": "address",
          "name": "to",
          "type": "address"
        },
        {
          "internalType": "uint256",
          "name": "tokenId",
          "type": "uint256"
        },
        {
          "internalType": "bytes",
          "name": "_data",
          "type": "bytes"
        }
      ],
      "name": "safeTransferFrom",
      "outputs": [],
      "stateMutability": "nonpayable",
      "type": "function"
    },
    {
      "inputs": [
        {
          "internalType": "address",
          "name": "operator",
          "type": "address"
        },
        {
          "internalType": "bool",
          "name": "approved",
          "type": "bool"
        }
      ],
      "name": "setApprovalForAll",
      "outputs": [],
      "stateMutability": "nonpayable",
      "type": "function"
    },
    {
      "inputs": [
        {
          "internalType": "bytes4",
          "name": "interfaceId",
          "type": "bytes4"
        }
      ],
      "name": "supportsInterface",
      "outputs": [
        {
          "internalType": "bool",
          "name": "",
          "type": "bool"
        }
      ],
      "stateMutability": "view",
      "type": "function"
    },
    {
      "inputs": [],
      "name": "symbol",
      "outputs": [
        {
          "internalType": "string",
          "name": "",
          "type": "string"
        }
      ],
      "stateMutability": "view",
      "type": "function"
    },
    {
      "inputs": [
        {
          "internalType": "uint256",
          "name": "tokenId",
          "type": "uint256"
        }
      ],
      "name": "tokenURI",
      "outputs": [
        {
          "internalType": "string",
          "name": "",
          "type": "string"
        }
      ],
      "stateMutability": "view",
      "type": "function"
    },
    {
      "inputs": [
        {
          "internalType": "address",
          "name": "from",
          "type": "address"
        },
        {
          "internalType": "address",
          "name": "to",
          "type": "address"
        },
        {
          "internalType": "uint256",
          "name": "tokenId",
          "type": "uint256"
        }
      ],
      "name": "transferFrom",
      "outputs": [],
      "stateMutability": "nonpayable",
      "type": "function"
    }
  ],
  "bytecode": "0x6080604052600060085560405180610160016040528061012f81526020016200420461012f9139600990805190602001906200003d92919062000683565b506040518060c001604052806040518060400160405280600981526020017f46616e746173746963000000000000000000000000000000000000000000000081525081526020016040518060400160405280600781526020017f416d617a696e670000000000000000000000000000000000000000000000000081525081526020016040518060400160405280600581526020017f536d616c6c00000000000000000000000000000000000000000000000000000081525081526020016040518060400160405280600581526020017f4c6172676500000000000000000000000000000000000000000000000000000081525081526020016040518060400160405280600481526020017f487567650000000000000000000000000000000000000000000000000000000081525081526020016040518060400160405280600481526020017f57696c6400000000000000000000000000000000000000000000000000000000815250815250600a906006620001bb92919062000714565b506040518060c001604052806040518060400160405280600581526020017f50686f6e6500000000000000000000000000000000000000000000000000000081525081526020016040518060400160405280600581526020017f576865656c00000000000000000000000000000000000000000000000000000081525081526020016040518060400160405280600381526020017f436172000000000000000000000000000000000000000000000000000000000081525081526020016040518060400160405280600481526020017f53686f650000000000000000000000000000000000000000000000000000000081525081526020016040518060400160405280600781526020017f53636f6f7465720000000000000000000000000000000000000000000000000081525081526020016040518060400160405280600681526020017f4261736b65740000000000000000000000000000000000000000000000000000815250815250600b9060066200033992919062000714565b506040518060c001604052806040518060400160405280600681526020017f4170706c6573000000000000000000000000000000000000000000000000000081525081526020016040518060400160405280600581526020017f547265657300000000000000000000000000000000000000000000000000000081525081526020016040518060400160405280600481526020017f486174730000000000000000000000000000000000000000000000000000000081525081526020016040518060400160405280600781526020017f44756d6d6965730000000000000000000000000000000000000000000000000081525081526020016040518060400160405280600781526020017f42616e616e61730000000000000000000000000000000000000000000000000081525081526020016040518060400160405280600781526020017f4d6f6e6b65797300000000000000000000000000000000000000000000000000815250815250600c906006620004b792919062000714565b50348015620004c557600080fd5b506040518060400160405280600681526020017f45687261624d00000000000000000000000000000000000000000000000000008152506040518060400160405280600281526020017f454800000000000000000000000000000000000000000000000000000000000081525081600090805190602001906200054a92919062000683565b5080600190805190602001906200056392919062000683565b505050620005b16040518060400160405280601e81526020017f57656c636f6d6520746f204568726162277320636f6c6c656374696f6e2e0000815250620005b760201b620011321760201c565b62000935565b6200065781604051602401620005ce919062000849565b6040516020818303038152906040527f41304fac000000000000000000000000000000000000000000000000000000007bffffffffffffffffffffffffffffffffffffffffffffffffffffffff19166020820180517bffffffffffffffffffffffffffffffffffffffffffffffffffffffff83818316178352505050506200065a60201b60201c565b50565b60008151905060006a636f6e736f6c652e6c6f679050602083016000808483855afa5050505050565b8280546200069190620008bf565b90600052602060002090601f016020900481019282620006b5576000855562000701565b82601f10620006d057805160ff191683800117855562000701565b8280016001018555821562000701579182015b8281111562000700578251825591602001919060010190620006e3565b5b5090506200071091906200077b565b5090565b82805482825590600052602060002090810192821562000768579160200282015b82811115620007675782518290805190602001906200075692919062000683565b509160200191906001019062000735565b5b5090506200077791906200079a565b5090565b5b80821115620007965760008160009055506001016200077c565b5090565b5b80821115620007be5760008181620007b49190620007c2565b506001016200079b565b5090565b508054620007d090620008bf565b6000825580601f10620007e4575062000805565b601f0160209004906000526020600020908101906200080491906200077b565b5b50565b600062000815826200086d565b62000821818562000878565b93506200083381856020860162000889565b6200083e8162000924565b840191505092915050565b6000602082019050818103600083015262000865818462000808565b905092915050565b600081519050919050565b600082825260208201905092915050565b60005b83811015620008a95780820151818401526020810190506200088c565b83811115620008b9576000848401525b50505050565b60006002820490506001821680620008d857607f821691505b60208210811415620008ef57620008ee620008f5565b5b50919050565b7f4e487b7100000000000000000000000000000000000000000000000000000000600052602260045260246000fd5b6000601f19601f8301169050919050565b6138bf80620009456000396000f3fe608060405234801561001057600080fd5b50600436106101165760003560e01c806370a08231116100a2578063b187301f11610071578063b187301f146102df578063b88d4fde1461030f578063c575757a1461032b578063c87b56dd1461035b578063e985e9c51461038b57610116565b806370a082311461026b578063838d17c01461029b57806395d89b41146102a5578063a22cb465146102c357610116565b80630af2c6ca116100e95780630af2c6ca146101b557806323b872dd146101d35780632de38d68146101ef57806342842e0e1461021f5780636352211e1461023b57610116565b806301ffc9a71461011b57806306fdde031461014b578063081812fc14610169578063095ea7b314610199575b600080fd5b61013560048036038101906101309190612513565b6103bb565b6040516101429190613135565b60405180910390f35b61015361049d565b6040516101609190613150565b60405180910390f35b610183600480360381019061017e9190612565565b61052f565b60405161019091906130a5565b60405180910390f35b6101b360048036038101906101ae91906124d7565b6105b4565b005b6101bd6106cc565b6040516101ca91906133b0565b60405180910390f35b6101ed60048036038101906101e891906123d1565b6106d2565b005b61020960048036038101906102049190612565565b610732565b6040516102169190613150565b60405180910390f35b610239600480360381019061023491906123d1565b610850565b005b61025560048036038101906102509190612565565b610870565b60405161026291906130a5565b60405180910390f35b6102856004803603810190610280919061236c565b610922565b60405161029291906133b0565b60405180910390f35b6102a36109da565b005b6102ad610c06565b6040516102ba9190613150565b60405180910390f35b6102dd60048036038101906102d8919061249b565b610c98565b005b6102f960048036038101906102f49190612565565b610cae565b6040516103069190613150565b60405180910390f35b61032960048036038101906103249190612420565b610dcc565b005b61034560048036038101906103409190612565565b610e2e565b6040516103529190613150565b60405180910390f35b61037560048036038101906103709190612565565b610f4c565b6040516103829190613150565b60405180910390f35b6103a560048036038101906103a09190612395565b61109e565b6040516103b29190613135565b60405180910390f35b60007f80ac58cd000000000000000000000000000000000000000000000000000000007bffffffffffffffffffffffffffffffffffffffffffffffffffffffff1916827bffffffffffffffffffffffffffffffffffffffffffffffffffffffff1916148061048657507f5b5e139f000000000000000000000000000000000000000000000000000000007bffffffffffffffffffffffffffffffffffffffffffffffffffffffff1916827bffffffffffffffffffffffffffffffffffffffffffffffffffffffff1916145b806104965750610495826111cb565b5b9050919050565b6060600080546104ac9061364f565b80601f01602080910402602001604051908101604052809291908181526020018280546104d89061364f565b80156105255780601f106104fa57610100808354040283529160200191610525565b820191906000526020600020905b81548152906001019060200180831161050857829003601f168201915b5050505050905090565b600061053a82611235565b610579576040517f08c379a000000000000000000000000000000000000000000000000000000000815260040161057090613310565b60405180910390fd5b6004600083815260200190815260200160002060009054906101000a900473ffffffffffffffffffffffffffffffffffffffff169050919050565b60006105bf82610870565b90508073ffffffffffffffffffffffffffffffffffffffff168373ffffffffffffffffffffffffffffffffffffffff161415610630576040517f08c379a000000000000000000000000000000000000000000000000000000000815260040161062790613370565b60405180910390fd5b8073ffffffffffffffffffffffffffffffffffffffff1661064f6112a1565b73ffffffffffffffffffffffffffffffffffffffff16148061067e575061067d816106786112a1565b61109e565b5b6106bd576040517f08c379a00000000000000000000000000000000000000000000000000000000081526004016106b490613250565b60405180910390fd5b6106c783836112a9565b505050565b60085481565b6106e36106dd6112a1565b82611362565b610722576040517f08c379a000000000000000000000000000000000000000000000000000000000815260040161071990613390565b60405180910390fd5b61072d838383611440565b505050565b606060006107666107428461169c565b6040516020016107529190613061565b604051602081830303815290604052611849565b9050600a805490508161077991906136ca565b9050600a81815481106107b5577f4e487b7100000000000000000000000000000000000000000000000000000000600052603260045260246000fd5b9060005260206000200180546107ca9061364f565b80601f01602080910402602001604051908101604052809291908181526020018280546107f69061364f565b80156108435780601f1061081857610100808354040283529160200191610843565b820191906000526020600020905b81548152906001019060200180831161082657829003601f168201915b5050505050915050919050565b61086b83838360405180602001604052806000815250610dcc565b505050565b6000806002600084815260200190815260200160002060009054906101000a900473ffffffffffffffffffffffffffffffffffffffff169050600073ffffffffffffffffffffffffffffffffffffffff168173ffffffffffffffffffffffffffffffffffffffff161415610919576040517f08c379a000000000000000000000000000000000000000000000000000000000815260040161091090613290565b60405180910390fd5b80915050919050565b60008073ffffffffffffffffffffffffffffffffffffffff168273ffffffffffffffffffffffffffffffffffffffff161415610993576040517f08c379a000000000000000000000000000000000000000000000000000000000815260040161098a90613270565b60405180910390fd5b600360008373ffffffffffffffffffffffffffffffffffffffff1673ffffffffffffffffffffffffffffffffffffffff168152602001908152602001600020549050919050565b60006109e6600761187c565b905060006109f382610732565b90506000610a0083610cae565b90506000610a0d84610e2e565b90506000838383604051602001610a2693929190612f78565b60405160208183030381529060405290506000600982604051602001610a4d929190612fa9565b60405160208183030381529060405290506000610a9283610a6d8461188a565b604051602001610a7e92919061301c565b60405160208183030381529060405261188a565b9050600081604051602001610aa79190613083565b6040516020818303038152906040529050610af66040518060400160405280601581526020017f0a2d2d2d2d2d2d2d2d2d2d2d2d2d2d2d2d2d2d2d2d0000000000000000000000815250611132565b610b346040518060400160405280600681526020017f5552693a200a0000000000000000000000000000000000000000000000000000815250611132565b610b3d81611132565b610b7b6040518060400160405280601581526020017f2d2d2d2d2d2d2d2d2d2d2d2d2d2d2d2d2d2d2d2d0a0000000000000000000000815250611132565b610b853389611a29565b610b8f8882611a47565b610bb2604051806060016040528060258152602001613825602591398933611abb565b87600881905550610bc36007611b5a565b7f1c05098ed1ff38e6238d2b1b04b2c7977d4c94ce651bda6473f9dba8dbf01da03389604051610bf492919061310c565b60405180910390a15050505050505050565b606060018054610c159061364f565b80601f0160208091040260200160405190810160405280929190818152602001828054610c419061364f565b8015610c8e5780601f10610c6357610100808354040283529160200191610c8e565b820191906000526020600020905b815481529060010190602001808311610c7157829003601f168201915b5050505050905090565b610caa610ca36112a1565b8383611b70565b5050565b60606000610ce2610cbe8461169c565b604051602001610cce9190612ffa565b604051602081830303815290604052611849565b9050600b8054905081610cf591906136ca565b9050600b8181548110610d31577f4e487b7100000000000000000000000000000000000000000000000000000000600052603260045260246000fd5b906000526020600020018054610d469061364f565b80601f0160208091040260200160405190810160405280929190818152602001828054610d729061364f565b8015610dbf5780601f10610d9457610100808354040283529160200191610dbf565b820191906000526020600020905b815481529060010190602001808311610da257829003601f168201915b5050505050915050919050565b610ddd610dd76112a1565b83611362565b610e1c576040517f08c379a0000000000000000000000000000000000000000000000000000000008152600401610e1390613390565b60405180910390fd5b610e2884848484611cdd565b50505050565b60606000610e62610e3e8461169c565b604051602001610e4e9190612fd8565b604051602081830303815290604052611849565b9050600c8054905081610e7591906136ca565b9050600c8181548110610eb1577f4e487b7100000000000000000000000000000000000000000000000000000000600052603260045260246000fd5b906000526020600020018054610ec69061364f565b80601f0160208091040260200160405190810160405280929190818152602001828054610ef29061364f565b8015610f3f5780601f10610f1457610100808354040283529160200191610f3f565b820191906000526020600020905b815481529060010190602001808311610f2257829003601f168201915b5050505050915050919050565b6060610f5782611235565b610f96576040517f08c379a0000000000000000000000000000000000000000000000000000000008152600401610f8d906132f0565b60405180910390fd5b6000600660008481526020019081526020016000208054610fb69061364f565b80601f0160208091040260200160405190810160405280929190818152602001828054610fe29061364f565b801561102f5780601f106110045761010080835404028352916020019161102f565b820191906000526020600020905b81548152906001019060200180831161101257829003601f168201915b505050505090506000611040611d39565b9050600081511415611056578192505050611099565b60008251111561108b578082604051602001611073929190612f54565b60405160208183030381529060405292505050611099565b61109484611d50565b925050505b919050565b6000600560008473ffffffffffffffffffffffffffffffffffffffff1673ffffffffffffffffffffffffffffffffffffffff16815260200190815260200160002060008373ffffffffffffffffffffffffffffffffffffffff1673ffffffffffffffffffffffffffffffffffffffff16815260200190815260200160002060009054906101000a900460ff16905092915050565b6111c8816040516024016111469190613150565b6040516020818303038152906040527f41304fac000000000000000000000000000000000000000000000000000000007bffffffffffffffffffffffffffffffffffffffffffffffffffffffff19166020820180517bffffffffffffffffffffffffffffffffffffffffffffffffffffffff8381831617835250505050611df7565b50565b60007f01ffc9a7000000000000000000000000000000000000000000000000000000007bffffffffffffffffffffffffffffffffffffffffffffffffffffffff1916827bffffffffffffffffffffffffffffffffffffffffffffffffffffffff1916149050919050565b60008073ffffffffffffffffffffffffffffffffffffffff166002600084815260200190815260200160002060009054906101000a900473ffffffffffffffffffffffffffffffffffffffff1673ffffffffffffffffffffffffffffffffffffffff1614159050919050565b600033905090565b816004600083815260200190815260200160002060006101000a81548173ffffffffffffffffffffffffffffffffffffffff021916908373ffffffffffffffffffffffffffffffffffffffff160217905550808273ffffffffffffffffffffffffffffffffffffffff1661131c83610870565b73ffffffffffffffffffffffffffffffffffffffff167f8c5be1e5ebec7d5bd14f71427d1e84f3dd0314c0f7b2291e5b200ac8c7c3b92560405160405180910390a45050565b600061136d82611235565b6113ac576040517f08c379a00000000000000000000000000000000000000000000000000000000081526004016113a390613230565b60405180910390fd5b60006113b783610870565b90508073ffffffffffffffffffffffffffffffffffffffff168473ffffffffffffffffffffffffffffffffffffffff16148061142657508373ffffffffffffffffffffffffffffffffffffffff1661140e8461052f565b73ffffffffffffffffffffffffffffffffffffffff16145b806114375750611436818561109e565b5b91505092915050565b8273ffffffffffffffffffffffffffffffffffffffff1661146082610870565b73ffffffffffffffffffffffffffffffffffffffff16146114b6576040517f08c379a00000000000000000000000000000000000000000000000000000000081526004016114ad90613330565b60405180910390fd5b600073ffffffffffffffffffffffffffffffffffffffff168273ffffffffffffffffffffffffffffffffffffffff161415611526576040517f08c379a000000000000000000000000000000000000000000000000000000000815260040161151d906131f0565b60405180910390fd5b611531838383611e20565b61153c6000826112a9565b6001600360008573ffffffffffffffffffffffffffffffffffffffff1673ffffffffffffffffffffffffffffffffffffffff168152602001908152602001600020600082825461158c9190613565565b925050819055506001600360008473ffffffffffffffffffffffffffffffffffffffff1673ffffffffffffffffffffffffffffffffffffffff16815260200190815260200160002060008282546115e39190613484565b92505081905550816002600083815260200190815260200160002060006101000a81548173ffffffffffffffffffffffffffffffffffffffff021916908373ffffffffffffffffffffffffffffffffffffffff160217905550808273ffffffffffffffffffffffffffffffffffffffff168473ffffffffffffffffffffffffffffffffffffffff167fddf252ad1be2c89b69c2b068fc378daa952ba7f163c4a11628f55a4df523b3ef60405160405180910390a4505050565b606060008214156116e4576040518060400160405280600181526020017f30000000000000000000000000000000000000000000000000000000000000008152509050611844565b600082905060005b600082146117165780806116ff90613681565b915050600a8261170f91906134da565b91506116ec565b60008167ffffffffffffffff811115611758577f4e487b7100000000000000000000000000000000000000000000000000000000600052604160045260246000fd5b6040519080825280601f01601f19166020018201604052801561178a5781602001600182028036833780820191505090505b5090505b6000851461183d576001826117a39190613565565b9150600a856117b291906136ca565b60306117be9190613484565b60f81b8183815181106117fa577f4e487b7100000000000000000000000000000000000000000000000000000000600052603260045260246000fd5b60200101907effffffffffffffffffffffffffffffffffffffffffffffffffffffffffffff1916908160001a905350600a8561183691906134da565b945061178e565b8093505050505b919050565b60008160405160200161185c9190612f3d565b6040516020818303038152906040528051906020012060001c9050919050565b600081600001549050919050565b60606000825114156118ad57604051806020016040528060008152509050611a24565b600060405180606001604052806040815260200161384a60409139905060006003600285516118dc9190613484565b6118e691906134da565b60046118f2919061350b565b905060006020826119039190613484565b67ffffffffffffffff811115611942577f4e487b7100000000000000000000000000000000000000000000000000000000600052604160045260246000fd5b6040519080825280601f01601f1916602001820160405280156119745781602001600182028036833780820191505090505b509050818152600183018586518101602084015b818310156119e3576003830192508251603f8160121c168501518253600182019150603f81600c1c168501518253600182019150603f8160061c168501518253600182019150603f8116850151825360018201915050611988565b6003895106600181146119fd5760028114611a0d57611a18565b613d3d60f01b6002830352611a18565b603d60f81b60018303525b50505050508093505050505b919050565b611a43828260405180602001604052806000815250611e25565b5050565b611a5082611235565b611a8f576040517f08c379a0000000000000000000000000000000000000000000000000000000008152600401611a86906132b0565b60405180910390fd5b80600660008481526020019081526020016000209080519060200190611ab69291906121f8565b505050565b611b55838383604051602401611ad393929190613172565b6040516020818303038152906040527fe3849f79000000000000000000000000000000000000000000000000000000007bffffffffffffffffffffffffffffffffffffffffffffffffffffffff19166020820180517bffffffffffffffffffffffffffffffffffffffffffffffffffffffff8381831617835250505050611df7565b505050565b6001816000016000828254019250508190555050565b8173ffffffffffffffffffffffffffffffffffffffff168373ffffffffffffffffffffffffffffffffffffffff161415611bdf576040517f08c379a0000000000000000000000000000000000000000000000000000000008152600401611bd690613210565b60405180910390fd5b80600560008573ffffffffffffffffffffffffffffffffffffffff1673ffffffffffffffffffffffffffffffffffffffff16815260200190815260200160002060008473ffffffffffffffffffffffffffffffffffffffff1673ffffffffffffffffffffffffffffffffffffffff16815260200190815260200160002060006101000a81548160ff0219169083151502179055508173ffffffffffffffffffffffffffffffffffffffff168373ffffffffffffffffffffffffffffffffffffffff167f17307eab39ab6107e8899845ad3d59bd9653f200f220920489ca2b5937696c3183604051611cd09190613135565b60405180910390a3505050565b611ce8848484611440565b611cf484848484611e80565b611d33576040517f08c379a0000000000000000000000000000000000000000000000000000000008152600401611d2a906131b0565b60405180910390fd5b50505050565b606060405180602001604052806000815250905090565b6060611d5b82611235565b611d9a576040517f08c379a0000000000000000000000000000000000000000000000000000000008152600401611d9190613350565b60405180910390fd5b6000611da4611d39565b90506000815111611dc45760405180602001604052806000815250611def565b80611dce8461169c565b604051602001611ddf929190612f54565b6040516020818303038152906040525b915050919050565b60008151905060006a636f6e736f6c652e6c6f679050602083016000808483855afa5050505050565b505050565b611e2f8383612017565b611e3c6000848484611e80565b611e7b576040517f08c379a0000000000000000000000000000000000000000000000000000000008152600401611e72906131b0565b60405180910390fd5b505050565b6000611ea18473ffffffffffffffffffffffffffffffffffffffff166121e5565b1561200a578373ffffffffffffffffffffffffffffffffffffffff1663150b7a02611eca6112a1565b8786866040518563ffffffff1660e01b8152600401611eec94939291906130c0565b602060405180830381600087803b158015611f0657600080fd5b505af1925050508015611f3757506040513d601f19601f82011682018060405250810190611f34919061253c565b60015b611fba573d8060008114611f67576040519150601f19603f3d011682016040523d82523d6000602084013e611f6c565b606091505b50600081511415611fb2576040517f08c379a0000000000000000000000000000000000000000000000000000000008152600401611fa9906131b0565b60405180910390fd5b805181602001fd5b63150b7a0260e01b7bffffffffffffffffffffffffffffffffffffffffffffffffffffffff1916817bffffffffffffffffffffffffffffffffffffffffffffffffffffffff19161491505061200f565b600190505b949350505050565b600073ffffffffffffffffffffffffffffffffffffffff168273ffffffffffffffffffffffffffffffffffffffff161415612087576040517f08c379a000000000000000000000000000000000000000000000000000000000815260040161207e906132d0565b60405180910390fd5b61209081611235565b156120d0576040517f08c379a00000000000000000000000000000000000000000000000000000000081526004016120c7906131d0565b60405180910390fd5b6120dc60008383611e20565b6001600360008473ffffffffffffffffffffffffffffffffffffffff1673ffffffffffffffffffffffffffffffffffffffff168152602001908152602001600020600082825461212c9190613484565b92505081905550816002600083815260200190815260200160002060006101000a81548173ffffffffffffffffffffffffffffffffffffffff021916908373ffffffffffffffffffffffffffffffffffffffff160217905550808273ffffffffffffffffffffffffffffffffffffffff16600073ffffffffffffffffffffffffffffffffffffffff167fddf252ad1be2c89b69c2b068fc378daa952ba7f163c4a11628f55a4df523b3ef60405160405180910390a45050565b600080823b905060008111915050919050565b8280546122049061364f565b90600052602060002090601f016020900481019282612226576000855561226d565b82601f1061223f57805160ff191683800117855561226d565b8280016001018555821561226d579182015b8281111561226c578251825591602001919060010190612251565b5b50905061227a919061227e565b5090565b5b8082111561229757600081600090555060010161227f565b5090565b60006122ae6122a9846133fc565b6133cb565b9050828152602081018484840111156122c657600080fd5b6122d184828561360d565b509392505050565b6000813590506122e8816137c8565b92915050565b6000813590506122fd816137df565b92915050565b600081359050612312816137f6565b92915050565b600081519050612327816137f6565b92915050565b600082601f83011261233e57600080fd5b813561234e84826020860161229b565b91505092915050565b6000813590506123668161380d565b92915050565b60006020828403121561237e57600080fd5b600061238c848285016122d9565b91505092915050565b600080604083850312156123a857600080fd5b60006123b6858286016122d9565b92505060206123c7858286016122d9565b9150509250929050565b6000806000606084860312156123e657600080fd5b60006123f4868287016122d9565b9350506020612405868287016122d9565b925050604061241686828701612357565b9150509250925092565b6000806000806080858703121561243657600080fd5b6000612444878288016122d9565b9450506020612455878288016122d9565b935050604061246687828801612357565b925050606085013567ffffffffffffffff81111561248357600080fd5b61248f8782880161232d565b91505092959194509250565b600080604083850312156124ae57600080fd5b60006124bc858286016122d9565b92505060206124cd858286016122ee565b9150509250929050565b600080604083850312156124ea57600080fd5b60006124f8858286016122d9565b925050602061250985828601612357565b9150509250929050565b60006020828403121561252557600080fd5b600061253384828501612303565b91505092915050565b60006020828403121561254e57600080fd5b600061255c84828501612318565b91505092915050565b60006020828403121561257757600080fd5b600061258584828501612357565b91505092915050565b61259781613599565b82525050565b6125a6816135ab565b82525050565b60006125b782613441565b6125c18185613457565b93506125d181856020860161361c565b6125da816137b7565b840191505092915050565b60006125f08261344c565b6125fa8185613468565b935061260a81856020860161361c565b612613816137b7565b840191505092915050565b60006126298261344c565b6126338185613479565b935061264381856020860161361c565b80840191505092915050565b6000815461265c8161364f565b6126668186613479565b945060018216600081146126815760018114612692576126c5565b60ff198316865281860193506126c5565b61269b8561342c565b60005b838110156126bd5781548189015260018201915060208101905061269e565b838801955050505b50505092915050565b60006126db603283613468565b91507f4552433732313a207472616e7366657220746f206e6f6e20455243373231526560008301527f63656976657220696d706c656d656e74657200000000000000000000000000006020830152604082019050919050565b6000612741601c83613468565b91507f4552433732313a20746f6b656e20616c7265616479206d696e746564000000006000830152602082019050919050565b6000612781600a83613479565b91507f54484952445f574f5244000000000000000000000000000000000000000000006000830152600a82019050919050565b60006127c1602483613468565b91507f4552433732313a207472616e7366657220746f20746865207a65726f2061646460008301527f72657373000000000000000000000000000000000000000000000000000000006020830152604082019050919050565b6000612827601983613468565b91507f4552433732313a20617070726f766520746f2063616c6c6572000000000000006000830152602082019050919050565b6000612867606383613479565b91507f222c20226465736372697074696f6e223a20224120686967686c79206163636c60008301527f61696d656420636f6c6c656374696f6e206f6620737175617265732e222c202260208301527f696d616765223a2022646174613a696d6167652f7376672b786d6c3b6261736560408301527f36342c00000000000000000000000000000000000000000000000000000000006060830152606382019050919050565b6000612919600b83613479565b91507f5345434f4e445f574f52440000000000000000000000000000000000000000006000830152600b82019050919050565b6000612959602c83613468565b91507f4552433732313a206f70657261746f7220717565727920666f72206e6f6e657860008301527f697374656e7420746f6b656e00000000000000000000000000000000000000006020830152604082019050919050565b60006129bf600d83613479565b91507f3c2f746578743e3c2f7376673e000000000000000000000000000000000000006000830152600d82019050919050565b60006129ff603883613468565b91507f4552433732313a20617070726f76652063616c6c6572206973206e6f74206f7760008301527f6e6572206e6f7220617070726f76656420666f7220616c6c00000000000000006020830152604082019050919050565b6000612a65602a83613468565b91507f4552433732313a2062616c616e636520717565727920666f7220746865207a6560008301527f726f2061646472657373000000000000000000000000000000000000000000006020830152604082019050919050565b6000612acb602983613468565b91507f4552433732313a206f776e657220717565727920666f72206e6f6e657869737460008301527f656e7420746f6b656e00000000000000000000000000000000000000000000006020830152604082019050919050565b6000612b31602e83613468565b91507f45524337323155524953746f726167653a2055524920736574206f66206e6f6e60008301527f6578697374656e7420746f6b656e0000000000000000000000000000000000006020830152604082019050919050565b6000612b97600283613479565b91507f227d0000000000000000000000000000000000000000000000000000000000006000830152600282019050919050565b6000612bd7602083613468565b91507f4552433732313a206d696e7420746f20746865207a65726f20616464726573736000830152602082019050919050565b6000612c17603183613468565b91507f45524337323155524953746f726167653a2055524920717565727920666f722060008301527f6e6f6e6578697374656e7420746f6b656e0000000000000000000000000000006020830152604082019050919050565b6000612c7d602c83613468565b91507f4552433732313a20617070726f76656420717565727920666f72206e6f6e657860008301527f697374656e7420746f6b656e00000000000000000000000000000000000000006020830152604082019050919050565b6000612ce3602983613468565b91507f4552433732313a207472616e73666572206f6620746f6b656e2074686174206960008301527f73206e6f74206f776e00000000000000000000000000000000000000000000006020830152604082019050919050565b6000612d49602f83613468565b91507f4552433732314d657461646174613a2055524920717565727920666f72206e6f60008301527f6e6578697374656e7420746f6b656e00000000000000000000000000000000006020830152604082019050919050565b6000612daf600a83613479565b91507f7b226e616d65223a2022000000000000000000000000000000000000000000006000830152600a82019050919050565b6000612def602183613468565b91507f4552433732313a20617070726f76616c20746f2063757272656e74206f776e6560008301527f72000000000000000000000000000000000000000000000000000000000000006020830152604082019050919050565b6000612e55600a83613479565b91507f46495253545f574f5244000000000000000000000000000000000000000000006000830152600a82019050919050565b6000612e95601d83613479565b91507f646174613a6170706c69636174696f6e2f6a736f6e3b6261736536342c0000006000830152601d82019050919050565b6000612ed5603183613468565b91507f4552433732313a207472616e736665722063616c6c6572206973206e6f74206f60008301527f776e6572206e6f7220617070726f7665640000000000000000000000000000006020830152604082019050919050565b612f3781613603565b82525050565b6000612f49828461261e565b915081905092915050565b6000612f60828561261e565b9150612f6c828461261e565b91508190509392505050565b6000612f84828661261e565b9150612f90828561261e565b9150612f9c828461261e565b9150819050949350505050565b6000612fb5828561264f565b9150612fc1828461261e565b9150612fcc826129b2565b91508190509392505050565b6000612fe382612774565b9150612fef828461261e565b915081905092915050565b60006130058261290c565b9150613011828461261e565b915081905092915050565b600061302782612da2565b9150613033828561261e565b915061303e8261285a565b915061304a828461261e565b915061305582612b8a565b91508190509392505050565b600061306c82612e48565b9150613078828461261e565b915081905092915050565b600061308e82612e88565b915061309a828461261e565b915081905092915050565b60006020820190506130ba600083018461258e565b92915050565b60006080820190506130d5600083018761258e565b6130e2602083018661258e565b6130ef6040830185612f2e565b818103606083015261310181846125ac565b905095945050505050565b6000604082019050613121600083018561258e565b61312e6020830184612f2e565b9392505050565b600060208201905061314a600083018461259d565b92915050565b6000602082019050818103600083015261316a81846125e5565b905092915050565b6000606082019050818103600083015261318c81866125e5565b905061319b6020830185612f2e565b6131a8604083018461258e565b949350505050565b600060208201905081810360008301526131c9816126ce565b9050919050565b600060208201905081810360008301526131e981612734565b9050919050565b60006020820190508181036000830152613209816127b4565b9050919050565b600060208201905081810360008301526132298161281a565b9050919050565b600060208201905081810360008301526132498161294c565b9050919050565b60006020820190508181036000830152613269816129f2565b9050919050565b6000602082019050818103600083015261328981612a58565b9050919050565b600060208201905081810360008301526132a981612abe565b9050919050565b600060208201905081810360008301526132c981612b24565b9050919050565b600060208201905081810360008301526132e981612bca565b9050919050565b6000602082019050818103600083015261330981612c0a565b9050919050565b6000602082019050818103600083015261332981612c70565b9050919050565b6000602082019050818103600083015261334981612cd6565b9050919050565b6000602082019050818103600083015261336981612d3c565b9050919050565b6000602082019050818103600083015261338981612de2565b9050919050565b600060208201905081810360008301526133a981612ec8565b9050919050565b60006020820190506133c56000830184612f2e565b92915050565b6000604051905081810181811067ffffffffffffffff821117156133f2576133f1613788565b5b8060405250919050565b600067ffffffffffffffff82111561341757613416613788565b5b601f19601f8301169050602081019050919050565b60008190508160005260206000209050919050565b600081519050919050565b600081519050919050565b600082825260208201905092915050565b600082825260208201905092915050565b600081905092915050565b600061348f82613603565b915061349a83613603565b9250827fffffffffffffffffffffffffffffffffffffffffffffffffffffffffffffffff038211156134cf576134ce6136fb565b5b828201905092915050565b60006134e582613603565b91506134f083613603565b925082613500576134ff61372a565b5b828204905092915050565b600061351682613603565b915061352183613603565b9250817fffffffffffffffffffffffffffffffffffffffffffffffffffffffffffffffff048311821515161561355a576135596136fb565b5b828202905092915050565b600061357082613603565b915061357b83613603565b92508282101561358e5761358d6136fb565b5b828203905092915050565b60006135a4826135e3565b9050919050565b60008115159050919050565b60007fffffffff0000000000000000000000000000000000000000000000000000000082169050919050565b600073ffffffffffffffffffffffffffffffffffffffff82169050919050565b6000819050919050565b82818337600083830152505050565b60005b8381101561363a57808201518184015260208101905061361f565b83811115613649576000848401525b50505050565b6000600282049050600182168061366757607f821691505b6020821081141561367b5761367a613759565b5b50919050565b600061368c82613603565b91507fffffffffffffffffffffffffffffffffffffffffffffffffffffffffffffffff8214156136bf576136be6136fb565b5b600182019050919050565b60006136d582613603565b91506136e083613603565b9250826136f0576136ef61372a565b5b828206905092915050565b7f4e487b7100000000000000000000000000000000000000000000000000000000600052601160045260246000fd5b7f4e487b7100000000000000000000000000000000000000000000000000000000600052601260045260246000fd5b7f4e487b7100000000000000000000000000000000000000000000000000000000600052602260045260246000fd5b7f4e487b7100000000000000000000000000000000000000000000000000000000600052604160045260246000fd5b6000601f19601f8301169050919050565b6137d181613599565b81146137dc57600080fd5b50565b6137e8816135ab565b81146137f357600080fd5b50565b6137ff816135b7565b811461380a57600080fd5b50565b61381681613603565b811461382157600080fd5b5056fe416e204e465420772f20494420257320686173206265656e206d696e74656420746f2025734142434445464748494a4b4c4d4e4f505152535455565758595a6162636465666768696a6b6c6d6e6f707172737475767778797a303132333435363738392b2fa2646970667358221220fec46596c0aca9e8727ceb9347467c4a769b4b542ea8a172e125a06a72f2094b64736f6c634300080000333c73766720786d6c6e733d27687474703a2f2f7777772e77332e6f72672f323030302f73766727207072657365727665417370656374526174696f3d27784d696e594d696e206d656574272076696577426f783d273020302033353020333530273e3c7374796c653e2e62617365207b2066696c6c3a2077686974653b20666f6e742d66616d696c793a2073657269663b20666f6e742d73697a653a20323470783b207d3c2f7374796c653e3c726563742077696474683d273130302527206865696768743d2731303025272066696c6c3d27626c61636b27202f3e3c7465787420783d273530252720793d273530252720636c6173733d27626173652720646f6d696e616e742d626173656c696e653d276d6964646c652720746578742d616e63686f723d276d6964646c65273e",
  "linkReferences": {},
  "deployedLinkReferences": {}
}